:100000000C94A7010C94D6010C94D6010C94D60143
:100010000C94D6010C94D6010C94D6010C94D60104
:100020000C94D6010C94BD450C94D6010C94D601C9
:100030000C94D6010C94D6010C94D6010C94D601E4
:100040000C94D6010C94D6010C9443400C94D60128
:100050000C94FE430C9434440C94D6010C94D601B9
:100060000C94D6010C94D6010C94123F0C94D6013A
:100070000C94AB440C94E1440C94D6010C94D6013E
:100080000C94D6010C94D6010C948932EF05F2053C
:100090003D0672069606B906DC06E406F20600077F
:1000A0005E07670773077F078D079707A507B507E3
:1000B000C107E607F2070008931493147E147E1418
:1000C0008B148B1497149714601C6D1C7F1C911C4F
:1000D000A21CB31CCF1CE21CFC1C0D1D1E1D2F1DE1
:1000E000401D511D621D731D841D951DA61DB71D4C
:1000F000C81DD91DEA1DFB1D0C1E1D1E2E1E3F1EF8
:10010000501E611E721E831E941EBC1EED1EFE1E1E
:10011000101F211F391F511F621F731F851F9D1F35
:10012000B51FCD1FDE1FFD1F0E201F2030204120D8
:1001300052206320752086209720A820C120D2203D
:10014000E3201F21302141210E2C1B2C1F2C252C9C
:100150002B2C402C492C502C552C5B2C5B2C5B2CD5
:100160005B2C5B2C5B2C5B2C5B2C5B2C5B2C5B2C57
:100170005B2C5B2C5B2C5B2C5B2C5B2C5B2C5B2C47
:100180005B2C5B2C5B2C5B2C0E2C142C1B2C1F2C47
:10019000252C2B2C312C352C3A2C96419B41A041FF
:1001A000AA41D841D841B441BC41C441CE41F541F6
:1001B000F841EB41EF410F420F42FC410042064241
:1001C0000A42005EBCE2613FDD83C29C7E20A3FD4B
:1001D0001F419DC3217FFCA2401E5F01E3BD3E6025
:1001E00082DC237D9FC1421CFEA0E1BF5D0380DE57
:1001F0003C62BEE0025CDF81633D7C22C09E1D4309
:10020000A1FF4618FAA427799BC584DA3866E5BBB6
:100210005907DB856739BAE406581947A5FB7826E4
:10022000C49A653BD987045AB8E6A7F91B45C69816
:100230007A24F8A6441A99C7257B3A6486D85B05C8
:10024000E7B98CD2306EEDB3510F4E10F2AC2F7176
:1002500093CD114FADF3702ECC92D38D6F31B2ECA4
:100260000E50AFF1134DCE90722C6D33D18F0C52D6
:10027000B0EE326C8ED0530DEFB1F0AE4C1291CF88
:100280002D73CA947628ABF517490856B4EA693736
:10029000D58B5709EBB536688AD495CB2977F4AA64
:1002A0004816E9B7550B88D6346A2B7597C94A1496
:1002B000F6A8742AC896154BA9F7B6E80A54D78948
:1002C0006B35000000000000000103080200090A6D
:1002D000000000000000000000000000000000001E
:1002E0000407010204080102040820401020408095
:1002F0008040201008040201010204081020408000
:100300001080040404040202020204040202020235
:1003100001010101010101010303030303030303BD
:100320000404000020002300260029000000220011
:10033000250028002B0000002100240027002A00AF
:10034000020063225033283E68441545F9221124E7
:100350001FBECFEFD0E4DEBFCDBF12E0A0E0B1E022
:10036000EEE4FBE900E00BBF02C007900D92AE3D4A
:10037000B107D9F729E0AEEDB2E001C01D92A33676
:10038000B207E1F713E0CCE4D3E000E006C0229727
:100390000109FE010BBF0E94634AC234D10780E00D
:1003A0000807A9F70E9498470C94954D0C940000FB
:1003B000809109068F5F80930906809109068A3033
:1003C00010F010920906089580913106833030F4C0
:1003D00010920B0660E08FE10C9449420895CF9291
:1003E000DF92EF92FF9260E089E295E00E94C63AC8
:1003F0006B017C018091AD056AE00E94D349682FB2
:1004000070E080E090E00E94AC489B01AC01C70125
:10041000B6010E94A84720E030E048EC52E40E9478
:1004200060490E947948CB01FF90EF90DF90CF9018
:100430000895CF93DF9387E0EDE7F6E0A6E7B6E017
:1004400001900D928A95E1F78091A205882349F0E9
:100450000E94FD26AB01BC0184E396E00E947A2E47
:1004600002C00E94FD266093190670931A068093BD
:100470001B0690931C0620917F05609119067091D0
:100480001A0680911B0690911C06211114C00E942F
:10049000DC25CAE0D0E0BE010E94DF4960937D0602
:1004A0006091190670911A0680911B0690911C06A6
:1004B0000E94DC2513C00E94CB25CAE0D0E0BE011B
:1004C0000E94DF4960937D066091190670911A06BB
:1004D00080911B0690911C060E94CB25BE010E94B4
:1004E000DF4980937E066091190670911A0680910B
:1004F0001B0690911C060E94EB25CAE0D0E0BE01CD
:100500000E94DF4960937F066091190670911A0678
:1005100080911B0690911C060E94EB25BE010E9453
:10052000DF49809380066091190670911A068091C8
:100530001B0690911C060E94F125BE010E94DF4916
:10054000609381066091190670911A0680911B06CE
:1005500090911C060E94F125BE010E94DF49809304
:10056000820680913501882349F087E0EDE7F6E0C7
:10057000A6E7B6E001900D928A95E1F71092350159
:10058000DF91CF9108950F931F93CF93DF93CDB752
:10059000DEB727970FB6F894DEBF0FBECDBF8091B0
:1005A000A606882309F44CC08091B406882309F478
:1005B00047C00E948D400091BE061091BF06209159
:1005C000C0063091C106601B710B820B930B6C3D12
:1005D000754081059105A0F58091B506882381F1CC
:1005E00084EB96E00E94542A8B8384EB96E00E9471
:1005F000622A8A8384EB96E00E94782A898386EABD
:1006000096E00E94172A825B8F8386EA96E00E941A
:10061000272A8E8386EA96E00E94462A8D83CE01A1
:1006200001960E94112600911F061091200620912C
:10063000210630912206600F711F821F931F03C095
:1006400060E070E0CB0127960FB6F894DEBF0FBED6
:10065000CDBFDF91CF911F910F91089510921F068A
:1006600010922006109221061092220680919F057A
:10067000882341F14091A00520E13EE0429FC00166
:10068000439F900D1124AA2797FDA095BA2F809320
:100690001F0690932006A0932106B0932206209176
:1006A000A10521110FC0B095A095909581959F4F00
:1006B000AF4FBF4F80931F0690932006A093210653
:1006C000B093220610921E0610921D068091A60578
:1006D000882399F02CE3829FC001112490931E0679
:1006E00080931D062091A705211107C09195819542
:1006F000910990931E0680931D06089590913703EB
:10070000993030F0811106C082E38093380108955A
:10071000882341F088E0809332011092370383E010
:1007200080933801409132014150409332016091F1
:100730009D0550913703252F30E0862F90E00197DB
:100740007AE0789FF001799FF00D1124E20FF31FFA
:10075000EA56FE4F808190E0042E02C09595879561
:100760000A94E2F780FF03C08DE796E002C086E7B7
:1007700096E09093750680937406662369F0F901FC
:10078000E457FE4F808190E0042E02C09595879536
:100790000A94E2F7817001C081E08093080641115C
:1007A00006C088E0809332015F5F5093370308955D
:1007B000882311F0611102C0299801C0299A289A52
:1007C000289808950F931F93CF93DF932AE030E08A
:1007D00090E0EC01C55CDE4F21503109488150E0CA
:1007E0004217530711F4299A01C02998289A28988A
:1007F0002115310589F72091B305222331F120918C
:100800002806222321F0209114062223F1F08C01E6
:10081000005D1C4FF80120812A3041F428812A30E4
:10082000A1F0FC01EA5CFD4F41E007C028812A30BD
:1008300061F4FC01EA5CFD4F40E060818AE495E0F0
:100840000E945F368881F8018083DF91CF911F91EC
:100850000F9108950F931F93CF93DF93C82FD62F37
:10086000042F122F882309F446C00E94B8276AE09B
:1008700070E00E94DF4990913401981731F091E0C7
:10088000909333018093340102C010923301809120
:100890009D05882369F080913106811109C081E0AE
:1008A00090913301911101C080E00E947E0309C044
:1008B000EDE7F6E0F0937506E093740681E080932F
:1008C0000806E0917406F0917506808180934101DD
:1008D000818180934001828180933F018381809355
:1008E0003E01848180933D01858180933C0180910C
:1008F000090680933B01DD2329F08AE080934101C2
:1009000080934001002329F08AE080933F01809387
:100910003E01112339F09AE090933D0190933C0100
:1009200090933B0180917F0581110DC080918005DE
:10093000813049F480914101811105C0CC2319F027
:100940008AE08093410180911406813059F48091AE
:100950002806882339F08AE080933B0180933C018C
:1009600080933D012A9861E080910D060E94D80392
:1009700061E080910C060E94D80380E00E94E203AF
:1009800061E080910806811101C060E080910F064E
:100990000E94D80361E080910806811101C060E0E7
:1009A00080910E060E94D80386E00E94E20385E053
:1009B0000E94E20384E00E94E20361E08091080665
:1009C000811101C060E0809111060E94D80361E0AE
:1009D00080910806811101C060E0809110060E949C
:1009E000D80383E00E94E20382E00E94E20381E0F8
:1009F0000E94E2032A9ADF91CF911F910F910895EF
:100A0000CF93DF93FA01A081AF3F79F42091BE0527
:100A10003091BF05280F391F261737075CF537FFC0
:100A20002BC09B012150310927C0B0E0FA0120E022
:100A300030E0C191D0E08C179D07A9F48091BE05EC
:100A40009091BF05820F931F8617970729F097FF94
:100A500005C0CB01019702C080E090E0FA01E80FE9
:100A6000F91F208109C02F5F3F4F261737070CF36E
:100A7000CD01DCCF20E030E01092BF051092BE0522
:100A8000822FDF91CF9108958F929F92AF92BF9264
:100A9000EF92FF920F931F93CF93DF938C01EB01A3
:100AA0006091190670911A0680911B0690911C06A0
:100AB0000E94CB257C018091450381110DC00E94CD
:100AC0008D406093F2027093F3028093F40290934E
:100AD000F50281E08093450380913106853009F469
:100AE000C4C10E948D408090F2029090F302A090C9
:100AF000F402B090F502681979098A099B096333F9
:100B000071058105910558F00E948D406093F202B5
:100B10007093F3028093F4029093F502A6C1809142
:100B20001706882321F0E091B105F0E001C0F8013B
:100B3000EE0FFF1FEE51FE4FB08080910B0681112A
:100B400006C08091B205882311F0C0E0D0E0011505
:100B5000110511F4C0E0D0E0FF244701880C991C76
:100B6000D401AE0DBF1DA054BA4F2C91213051F4C9
:100B700011968C911197813039F412968C918130B5
:100B800019F470C1223070F4D401AE0DBF1DA05411
:100B9000BA4F11968C911197823020F412968C9155
:100BA000823010F0C9E0D0E080910B0190910C01EF
:100BB000C817D90739F4C630D10524F00F3F1F4FAD
:100BC00009F453C1D0930C01C0930B01CA30D10575
:100BD00008F04BC1CA5BDF4FFE010C94344A60E061
:100BE00070E0ECC0C091F102EC2FF0E021E1C29F77
:100BF000E0011124C55BDA4FEE0FFF1FE659FE4FEF
:100C0000608171818B2D90E06817790714F4B60E1E
:100C100001C0B12CCE010E940230CE010E94F72FFC
:100C2000811123C1CE010E94792F811116C08091BC
:100C3000F1028F5F833019F08093F10202C01092AD
:100C4000F1028091F102E1E18E9FC001112448EB95
:100C50005BE06B2D855B9A4F04C048EB5BE060E086
:100C6000CE01DF91CF911F910F91FF90EF90BF9038
:100C7000AF909F908F900C947C2FCBE4D5E00AE648
:100C800011E0CE010E940230CE010E94F72F8111A7
:100C900021C0CE010E94792F811116C024E630E0D8
:100CA00040E050E061E070E080E090E00E9441466A
:100CB000F801208131812617370714F4620F01C033
:100CC00060E048EB5BE003C048EB5BE060E0CE0136
:100CD0000E947C2F61960E5F1F4FF5E0CE37DF0735
:100CE00081F6C3C060E070E0809133060E947041DD
:100CF00060E070E0809132060E9470418BE495E0E4
:100D00000E9402308BE495E00E94F72F8111ADC064
:100D10008BE495E00E94792F48EB5BE0811102C0E3
:100D20006B2D01C060E08BE495E09BCF60E070E04C
:100D300088E00E94704160E070E0809132060E947D
:100D400070418CE595E00E9402308CE595E00E94B0
:100D5000F72F81118AC08CE595E00E94792F48EB2E
:100D60005BE0811102C06B2D01C060E08CE595E075
:100D700078CF60E070E088E00E94704160E070E051
:100D8000809133060E9470418DE695E00E9402300A
:100D90008DE695E00E94F72F811167C08DE695E002
:100DA0000E94792F48EB5BE0811102C06B2D01C0DE
:100DB00060E08DE695E055CF6B2D70E088E00E94F5
:100DC000704160E070E007C060E070E088E00E9481
:100DD00070416B2D70E0809133060E94704160E09D
:100DE00070E032C060E070E088E00E94704160E036
:100DF00070E0809133060E9470416B2D70E024C03A
:100E0000E22FF0E0EE0FFF1FEE51FE4F6081718187
:100E100088E00E947041E401CE0DDF1DC054DA4F1E
:100E2000E981F0E0EE0FFF1FEE51FE4F608171810E
:100E3000809133060E947041EA81F0E0EE0FFF1FBF
:100E4000EE51FE4F6081718180913206DF91CF912A
:100E50001F910F91FF90EF90BF90AF909F908F9058
:100E60000C947041C0E0D0E08FCEDF91CF911F9104
:100E70000F91FF90EF90BF90AF909F908F9008954B
:100E8000CF93DF93EC016091190670911A0680915F
:100E90001B0690911C060E94F12580FD03C0109254
:100EA000F00203C081E08093F002CC30D10508F05D
:100EB000B4C0FE01E05BFF4F0C94344A109211065F
:100EC0001092100610920F0610920E0688C081E054
:100ED000809311068093100680930F0680930E0670
:100EE00010920D0698C08091F0028111ADC0109251
:100EF000110610920F0610920D0681E00BC0809132
:100F0000F00281119BC081E08093110680930F064F
:100F100010920D0680931006ACC08091F0028111F2
:100F200099C081E08093110610920F069EC08091B7
:100F3000F0028111DCCF81E08093110680930F06CF
:100F400010920D06109210060DC08091F0028111D2
:100F500087C081E08093110610920F0610920D0653
:100F60008093100610920E0656C08091F0028111F7
:100F700022C01092110610920F0610920D06C1E0C9
:100F80000BC08091F002811116C0C1E0C093110620
:100F9000C0930F0610920D06C0930C060E94AF2757
:100FA000882329F0C093100610920E0604C01092F8
:100FB0001006C0930E068091F002882371F1109202
:100FC000100610920E0610920D0642C010921106E5
:100FD00081E08093100680930E0610920F06109207
:100FE0000D060BC0109211061092100681E080933E
:100FF0000E0610920F0680930D0610920C060DC07F
:1010000081E0809311068093100680930E068093F2
:101010000F0680930D0680930C0680912806882386
:1010200059F180911406813039F510920E06109214
:101030000F0610920D0610920C061EC0109211069B
:1010400010920F0610920D061092100610920E06C6
:1010500081E0E1CF1092110681E080930F0680CFEE
:101060001092110681E080930F0610920D061092E7
:10107000100680930E06CFCFDF91CF91089580E0C8
:1010800090E00E944007EBE3F1E08AE0819391E079
:10109000E234F907D9F720E040E060E080E00C940A
:1010A0002A0420919F05223079F028F42223C1F0F0
:1010B000213039F00895243069F048F0253069F086
:1010C000089580EC92E1089580E895E2089580E02B
:1010D0009BE4089580E096E9089580E091EE0895FC
:1010E00080E090E008956F927F928F929F92AF92EE
:1010F000BF92CF92DF92EF92FF920F931F93CF9305
:10110000DF93D82FC62F642E722E0E948D406B0164
:101110007C0180913D0381110DC00E948D40609340
:10112000EC027093ED028093EE029093EF0281E067
:1011300080933D03D33019F48091E80201C08D2FD4
:101140008093E802C33019F48091E90201C08C2F2A
:101150008093E90223E0621203C08091EA0201C099
:10116000862D8093EA0283E0781203C08091EB021F
:1011700001C0872D8093EB020E948D408090EC028D
:101180009090ED02A090EE02B090EF0268197909FC
:101190008A099B09683E73408105910550F4D3305C
:1011A00041F4C33031F483E0681203C0781609F4C7
:1011B00067C00E948D406093EC027093ED028093B3
:1011C000EE029093EF0280914201811112C0809152
:1011D0000A01882309F454C0C0E040E06C2F8AE47F
:1011E00095E00E945F36CF5FC430B9F710920A01D4
:1011F00047C081E080930A018091E4029091E5026A
:10120000A091E602B091E70246015701881A990AB7
:10121000AA0ABB0AC8EED2E010E001E049914230D0
:1012200030F4612F8AE495E00E945F361AC024EF03
:10123000821621E09206A104B10498F0423089F4AC
:10124000C092E402D092E502E092E602F092E70258
:101250004091E302612F8AE495E00E945F3600939B
:10126000E2021F5F1430D1F68091E202882341F040
:101270008091E30291E089278093E3021092E202D9
:10128000DF91CF911F910F91FF90EF90DF90CF9062
:10129000BF90AF909F908F907F906F9008954F92E6
:1012A0005F926F927F928F929F92AF92BF92CF92F6
:1012B000DF92EF92FF920F931F93482E0E94C3027A
:1012C0004B015C01611571058105910509F462C04E
:1012D000109238030E94EF336B017C01C818D908C3
:1012E000EA08FB08F7FE08C0F094E094D094C0949C
:1012F000C11CD11CE11CF11C512C612C712CC4149B
:10130000D504E604F704C4F1B501A40183E597E030
:101310000E94DA34C501B4010E94CC2684EB96E029
:101320000E94972A9AE0899F500111248091B40667
:10133000882379F00E948D400091BE061091BF066F
:101340002091C0063091C106601B710B820B930B7C
:1013500003C06FEF7FEFCB01C501860F971F0E947F
:10136000E4274C145D046E047F040CF040C023E0BD
:1013700043E061E081E02BC023E043E060E081E0F6
:101380000E9473088091B7058150823080F51092D9
:1013900042012DC0809138038F5F8F3F09F485E0B3
:1013A0008093380380913803853008F18091B70528
:1013B000813031F0823039F480912806811103C0E8
:1013C00081E08093420123E043E060E082E01F91EE
:1013D0000F91FF90EF90DF90CF90BF90AF909F90D4
:1013E0008F907F906F905F904F900C9473081F9137
:1013F0000F91FF90EF90DF90CF90BF90AF909F90B4
:101400008F907F906F905F904F900895CF92DF9272
:10141000EF92FF9283E10E944941BC01882777FD4A
:101420008095982F0E94AC486B017C0120E030E051
:101430004FE254E40E940D4887FD11C020E030E0E7
:1014400041E654E4C701B6010E945C4918166CF4E9
:10145000C12CD12C61E6E62E64E4F62E06C0C12C28
:10146000D12C7FE2E72E74E4F72E20E030E04FE24B
:1014700054E4C701B6010E94A84720E030E048E4E8
:1014800053E40E94114820E030E048E452E40E9416
:1014900060499B01AC0160E070E088E492E40E9446
:1014A000A84720E030E0A9010E94A9470E9479489E
:1014B000CB01FF90EF90DF90CF900895CF92DF9215
:1014C000EF92FF92853050F4833078F4813078F1D8
:1014D000FF90EF90DF90CF900C94EF01853039F5BD
:1014E00089E295E00E94E53922C060E089E295E05A
:1014F0000E947A3A6B017C018091AD056AE00E94FE
:10150000D349682F70E080E090E00E94AC489B01D6
:10151000AC01C701B6010E94A84720E030E048ECCA
:1015200052E40E9460490E947948CB0102C080E0E9
:1015300090E0FF90EF90DF90CF9008950F931F936E
:10154000CF93DF9380914D0381110CC08091810571
:10155000811102C083E001C081E08093130381E028
:1015600080934D0380912D01882351F00E948D407E
:1015700060930F03709310038093110390931203F1
:1015800080911303813009F079C190912D01992345
:1015900009F414C110922D01809308060E943F089F
:1015A00080918105823009F445C0833009F4A3C0DD
:1015B000813009F000C16091190670911A0680917E
:1015C0001B0690911C060E940326CAE0D0E0BE01D3
:1015D0000E94DF49609325016091190670911A06F7
:1015E00080911B0690911C060E940326BE010E945A
:1015F000DF49809326016091190670911A06809147
:101600001B0690911C060E94F725BE010E94DF492F
:10161000609327016091190670911A0680911B064C
:1016200090911C060E94F725BE010E94DF4980931D
:1016300028013EC06091190670911A0680911B0620
:1016400090911C060E940326CAE0D0E0BE010E94D1
:10165000DF49609327016091190670911A06809105
:101660001B0690911C060E940326BE010E94DF49C2
:10167000809328016091190670911A0680911B06CB
:1016800090911C060E94F725BE010E94DF496093DD
:1016900025016091190670911A0680911B069091A0
:1016A0001C060E94F725BE010E94DF498093260197
:1016B0006091190670911A0680911B0690911C0684
:1016C0000E940926805D9740BE010E94DF49609319
:1016D00029016091190670911A0680911B0690915C
:1016E0001C060E940926805D9740BE010E94DF49CA
:1016F00080932A0160C06091190670911A0680914A
:101700001B0690911C060E940326CAE0D0E0BE0191
:101710000E94DF49609327016091190670911A06B3
:1017200080911B0690911C060E940326BE010E9418
:10173000DF49809328016091190670911A06809103
:101740001B0690911C060E94F725BE010E94DF49EE
:10175000609329016091190670911A0680911B0609
:1017600090911C060E94F725BE010E94DF498093DC
:101770002A016091190670911A0680911B069091BA
:101780001C060E940926805D9740BE010E94DF4929
:10179000609325016091190670911A0680911B06CD
:1017A00090911C060E940926805D9740BE010E9410
:1017B000DF49809326018AE080932B010E948D40AF
:1017C00000910F0310911003209111033091120327
:1017D0000C591F4F2F4F3F4F061717072807390780
:1017E00058F580E0E82FF0E0E25EFE4F91819083B3
:1017F0008F5F8D30B8F380930E0380910D038F5F60
:1018000080930D030E948D4060930F03709310032B
:10181000809311039093120380910D03873061F43C
:1018200010920D0381E080932D0182E080931303D9
:1018300089E090E00E94400780911E018093410161
:1018400080911F01809340018091200180933F018E
:101850008091210180933E018091220180933D017E
:101860008091230180933C018091240180933B016E
:1018700020E040E060E080E00E942A0480911303B1
:101880008230E9F580912D01882351F08091AC05DB
:10189000882321F089E295E00E94E53910922D011C
:1018A0000E948D4000910F031091100320911103AD
:1018B000309112030053184F2F4F3F4F0617170751
:1018C00028073907E0F481E080932D0190910C0303
:1018D00080911806911102C0823011F0811102C06E
:1018E00085E001C083E0809313030E948D406093E4
:1018F0000F03709310038093110390931203809150
:101900001303833009F09CC080912D018823B1F12D
:101910008091AC050E945E0A9C0190930B0380931A
:101920000A03845691098C3A964220F085E0809310
:10193000130324C010922D01C90168EE73E00E94C8
:10194000DF4960932801E4E6F0E0BF010E94DF492F
:1019500060932901C901BF010E94DF49EAE0F0E07C
:10196000BF010E94DF4960932A01C901BF010E94A3
:10197000DF4980932B018AE080932C010E948D40E7
:1019800000910F0310911003209111033091120365
:101990000C591F4F2F4F3F4F0617170728073907BE
:1019A00068F580E0E82FF0E0E25EFE4F91819083E1
:1019B0008F5F8E30B8F380930E0380910D038F5F9D
:1019C00080930D030E948D4060930F03709310036A
:1019D000809311039093120380910D03883071F46A
:1019E0008AE090E00E94400710920D0381E080930E
:1019F0002D0110920C0384E08093130380911E014B
:101A00008093410180911F018093400180912001CA
:101A100080933F018091210180933E0180912201BA
:101A200080933D018091230180933C0180912401AA
:101A300080933B0120E040E060E080E00E942A04C7
:101A400080911303843049F510922D010E948D403E
:101A500000910F0310911003209111033091120394
:101A60000053184F2F4F3F4F061717072807390706
:101A7000A0F481E080932D0185E080931303809191
:101A80008205809326060E948D4060930F03709319
:101A900010038093110390931203809113038530F8
:101AA00009F021C180912D01882309F49DC080E0B7
:101AB00090E00E94400720917F0560911906709187
:101AC0001A0680911B0690911C06211103C00E94EA
:101AD000DC2502C00E94CB258093090310922D01C2
:101AE00010920D031AE010931E0120910A03309109
:101AF0000B03CAE0D0E0C901BE010E94DF49809318
:101B00001F01E4E6F0E0C901BF010E94DF49BE0108
:101B10000E94DF4960932001C90168EE73E00E94D2
:101B2000DF49262FBF010E94DF49609321012093E6
:101B30002201109323011093240110932501609139
:101B4000190670911A0680911B0690911C060E943E
:101B5000F125BE010E94DF4980932601609119069C
:101B600070911A0680911B0690911C060E94F12527
:101B7000BE010E94DF4960932701609119067091B0
:101B80001A0680911B0690911C060E94EB25BE014F
:101B90000E94DF49809328016091190670911A060E
:101BA00080911B0690911C060E94EB25BE010E94AD
:101BB000DF496093290120910903822F612F0E9440
:101BC000D34990932A0180917F05811107C08091AC
:101BD0008005813019F410932B0106C0822F6AE032
:101BE0000E94D34980932B010E948D4000910F03E6
:101BF0001091100320911103309112030C591F4FC3
:101C00002F4F3F4F061717072807390708F045C021
:101C100080E0E82FF0E0E25EFE4F918190838F5FDD
:101C20008E30B8F380930E0380910D038F5F809305
:101C30000D030E948D4060930F03709310038093F7
:101C400011039093120380910D03883031F58AE1DE
:101C500095E00E946B358AE195E00E9435358CEF66
:101C600094E00E946B358CEF94E00E94353580E063
:101C70009AE0E82FF0E0E25EFE4F90838F5F8E30B7
:101C8000C0F380930E0381E080932D0180931303B2
:101C900010920D031092310626C08091240180938A
:101CA0004101809123018093400180912201809322
:101CB0003F018091210180933E018091200180931A
:101CC0003D0180911F0180933C0180911E01809312
:101CD0003B0120E040E060E080E0DF91CF911F9188
:101CE0000F910C942A04DF91CF911F910F910895C9
:101CF00061E08DE10E94494262E070E080E090E0A6
:101D00000E94BC4060E08DE10C9449420F931F9308
:101D1000CF9380912806882339F08091270681117E
:101D200003C0C091140602C0C09113068091B20591
:101D3000882379F080910B0681110BC080910A06EF
:101D4000811107C060E08FE1CF911F910F910C943A
:101D500049428091AF058823B9F00E94060A20917C
:101D6000AF0530E0281739077CF4C091B00581E059
:101D7000809317060E948D406093DE027093DF020D
:101D80008093E0029093E1020E948D400091DE0278
:101D90001091DF022091E0023091E102601B710B93
:101DA000820B930B613177428105910510F01092FF
:101DB000170680911706882331F08091B005C81767
:101DC00011F0C1113EC08FEF8C0F8830B8F4EC2FAA
:101DD000F0E0EE0FFF1FE654FE4F8091B6056081E4
:101DE0007181680F711D6F3F710519F014F06FEF6D
:101DF00070E087E00E94704161E00AC0C930B9F329
:101E0000C11109C060E070E087E00E94704160E0AD
:101E10008FE10E94494280912806811103C0E09120
:101E2000B40502C0E091B505F0E0EE0FFF1FE253EC
:101E3000FE4F6081718189E0CF911F910F910C94C9
:101E40007041CF911F910F91089510922806109222
:101E500012060E94860E809182058093260680914C
:101E6000840580932406809185058093250623E0D0
:101E700040E063E083E00C947308AF92BF92CF928E
:101E8000DF92EF92FF920F931F93CF93DF93CDB723
:101E9000DEB727970FB6F894DEBF0FBECDBF0E9406
:101EA000FD264091190650911A0660911B0670910B
:101EB0001C0684E396E00E94B82E882311F021E0EE
:101EC00001C020E043E063E083E00E94730860917A
:101ED000190670911A0680911B0690911C060E94AB
:101EE000FD25019709F4AEC06091190670911A069C
:101EF00080911B0690911C060E94FD25079709F40E
:101F0000A1C0D12C6091190670911A0680911B0610
:101F100090911C06AE014F5F5F4F0E94CE2407E9EF
:101F200015E0E12CF12CCC24C3946CE16E0DF8018A
:101F30003397408150E03196808190E031967081F6
:101F40002B814817590709F461C030E084179507C1
:101F500034F448962417350734F4285E3F4F24178D
:101F600035070CF44AC0281739070CF046C0872FF4
:101F700090E0009751F08130910519F4D1103DC0E7
:101F800004C00297D1F5DD20C1F1C092280660930C
:101F90001206F8018081809314060E94860EF701D4
:101FA000E258FA4F828D80932606838D8093240613
:101FB000848D809325068091B705823011F41092AC
:101FC000420123E041E063E083E00E947308F801EE
:101FD000808181111BC086E3A82E82E0B82EF50116
:101FE00061915F0141E08AE495E00E945F36FDE384
:101FF000AF16F2E0BF0699F709C08091120686136A
:1020000005C08091280681110E94250F87E0E81AFB
:10201000F10807501109EBEEEE16EFEFFE0609F09E
:1020200084CF27960FB6F894DEBF0FBECDBFDF91E9
:10203000CF911F910F91FF90EF90DF90CF90BF90C5
:10204000AF900895DD24D3945DCFEF92FF920F936C
:102050001F93CF93DF9300D000D0CDB7DEB71982A6
:102060001A821B8280912E01882329F10E943F0849
:1020700060E070E088E00E94704160E070E0809174
:1020800033060E94704160E070E0809132060E9449
:1020900070410E94250F109224061092250610927E
:1020A0002E010E948D4060932D0670932E06809322
:1020B0002F06909330068AE195E00E94AB35882385
:1020C000C9F046E950E060E070E08AE195E00E94E6
:1020D0001B350E948D4060932D0670932E068093D1
:1020E0002F06909330060E94780E809114038F5F24
:1020F000809314038BE095E00E94AB35882321F197
:1021000046E950E060E070E08BE095E00E941B350E
:102110000E948D4060932D0670932E0680932F06AB
:10212000909330060E94780E8091140390E0FC0199
:10213000EE0FFF1FE80FF91FE054FA4F80818F5F09
:1021400080838A3008F010828CEF94E00E94AB35D7
:10215000882321F146E950E060E070E08CEF94E0E4
:102160000E941B350E948D4060932D0670932E06B1
:1021700080932F06909330060E94780E809114036E
:1021800090E0FC01EE0FFF1FE80FF91FE054FA4F3B
:1021900081818F5F81838A3008F011828DEE94E017
:1021A0000E94AB35882321F146E950E060E070E001
:1021B0008DEE94E00E941B350E948D4060932D06A9
:1021C00070932E0680932F06909330060E94780E0F
:1021D0008091140390E0FC01EE0FFF1FE80FF91F40
:1021E000E054FA4F82818F5F82838A3008F0128236
:1021F000809114038831E8F050ECE52E55E0F52E7F
:1022000024E600E010E0F701E00FF11F822F800FBD
:10221000608190E02C830E94774D0F5F1F4F2C81CF
:102220000330110581F72D5F83E0E80EF11C2C3A95
:1022300041F780911403883108F076C00E948D40E8
:1022400000912D0610912E0620912F063091300618
:10225000601B710B820B930B613C744D81409105A7
:1022600008F062C020911403DE01119683E0289FDC
:102270009001112420543A4F80E090E0F901E80FDA
:10228000F91FE081E13011F41C9207C0F0E0EE0F7D
:10229000FF1FEE51FE4F40814C9301961196833003
:1022A000910561F7698170E088E00E9470416A8160
:1022B00070E0809133060E9470416B8170E08091E4
:1022C00032060E947041309114032AE0832F622F5E
:1022D0000E94D349809341019093400120933F0194
:1022E00020933E01832F90E0FC01EE0FFF1FE80FCB
:1022F000F91FE054FA4F808180933D0181818093E2
:102300003C01828180933B0120E041E060E080E07D
:102310000F900F900F900F90DF91CF911F910F9121
:10232000FF90EF900C942A040E943F080E94250F12
:102330000E943D0F81E080932E01109214031092B1
:1023400031060F900F900F900F90DF91CF911F915A
:102350000F91FF90EF9008951092270610920A06B1
:102360000C943D0FCF92DF92EF92FF920F931F9349
:10237000CF93DF9380913101882309F450C00E94EC
:10238000FD266B017C010E94CB2590932F03809347
:102390002E03C701B6010E94EB2590932D03809375
:1023A0002C03C701B6010E94F12590932B03809363
:1023B0002A03C701B6010E94032690932903809344
:1023C0002803C701B6010E94F72590932703809345
:1023D0002603C701B6010E940926805D97409093AD
:1023E0002503809324030E94780E0E943F081092D8
:1023F0000B06109228061092270680918305809381
:1024000013060E94860E0E948D4060932D067093E5
:102410002E0680932F0690933006109231018AE1A8
:1024200095E00E943535892BB1F48AE195E00E9450
:102430002135693B7B408105910568F00E94780E4B
:1024400084E08093310681E0809331011092230370
:10245000109222030EC28AE195E00E94AB358823D8
:10246000A9F0809122039091230301969093230376
:10247000809322030E948D4060932D0670932E0658
:1024800080932F06909330060E94780E8BE095E0A3
:102490000E94AB358823F9F08091220390912303A9
:1024A000019790932303809322030E948D406093B1
:1024B0002D0670932E0680932F0690933006809100
:1024C00022039091230397FF04C0109223031092DC
:1024D00022030E94780E0E948D40C0901E03D0906F
:1024E0001F03E0902003F09021036C197D098E09F1
:1024F0009F09683C710581059105A0F10E948D40FE
:1025000060931E0370931F03809320039093210315
:10251000809122039091230363E070E00E94DF49E1
:102520008230910511F410921C03FC01E55EFC4F12
:102530002081222311F0108202C021E02083009725
:1025400019F410921C0305C08130910529F41092F2
:102550001B0310921D0306C0029721F410921B0367
:1025600010921C038CEF94E00E94AB358823D1F0CD
:1025700046E950E060E070E08CEF94E00E941B358B
:102580000E948D4060932D0670932E0680932F0637
:10259000909330060E94780E81E090E090931A03A9
:1025A000809319038DEE94E00E94AB358823D1F01F
:1025B00046E950E060E070E08DEE94E00E941B354B
:1025C0000E948D4060932D0670932E0680932F06F7
:1025D000909330060E94780E8FEF9FEF90931A032E
:1025E00080931903E0912203F091230380912E033D
:1025F00090912F0360912C0370912D0340912A0339
:1026000050912B0300912803109129032091260358
:1026100030912703C0912403D0912503A091190381
:10262000B0911A03109709F46BC0E230F10581F103
:1026300034F4309771F0E130F105D9F061C0E43045
:10264000F10509F442C09CF1E530F10509F44BC0F5
:1026500057C08A0F9B1F8831910541F08F3FAFEF24
:102660009A0709F04DC087E190E04AC080E090E011
:1026700047C06A0F7B1F6C33710519F460E070E08E
:102680003FC06F3FAFEF7A07D9F56BE370E038C01A
:102690004A0F5B1F4C33510519F440E050E030C045
:1026A0004F3FAFEF5A0761F54BE350E029C00A0FE7
:1026B0001B1F0D30110519F401E010E021C00115B8
:1026C0001105F1F40CE010E01BC02A0F3B1F203273
:1026D000310519F421E030E013C02115310581F4F2
:1026E0002FE130E00DC0CA0FDB1FC436D10519F44D
:1026F000C0E1D0E005C0CF30D10514F4C3E6D0E08E
:1027000090932F0380932E0370932D0360932C03DB
:1027100050932B0340932A0310932903009328031B
:102720003093270320932603D0932503C0932403DB
:1027300010921A03109219033697B1F47E01E0E368
:10274000EE1AE8EFFE0A0E94C0270E94FD26AB01A8
:10275000BC0183E597E00E94DA3480912306882348
:1027600019F080E00E944F09809122039091230389
:10277000069799F00E948D40C0902D06D0902E06AD
:10278000E0902F06F09030066C197D098E099F09A4
:10279000613C744D8140910590F01092230310929A
:1027A00022030E94250F0E943D0F0E943F0881E0F6
:1027B0008093310110920A06109231065AC080911E
:1027C0002203909123030397ECF480912E039091C0
:1027D0002F032AE030E0B9010E94DF4960934101F4
:1027E0008093400180912C0390912D03B9010E94A8
:1027F000DF4960933F0180933E0180912A039091CD
:102800002B031CC080912803909129032AE030E01B
:10281000B9010E94DF49609341018093400180919A
:10282000260390912703B9010E94DF4960933F017D
:1028300080933E018091240390912503B9010E9469
:10284000DF4960933D0180933C018AE080933B0126
:1028500020911D0340911C0360911B0380E0DF91D8
:10286000CF911F910F91FF90EF90DF90CF900C943C
:102870002A04DF91CF911F910F91FF90EF90DF908D
:10288000CF9008958F929F92AF92BF92CF92DF9296
:10289000EF92FF920F931F93CF93DF9380912706C0
:1028A00081116CC180919B05882309F467C19091C7
:1028B0001D01992309F490C0982F9B7F923021F03D
:1028C000843011F0883029F489E0809313060E9447
:1028D000860E80919B0590E0FC013197E830F10570
:1028E00008F0FAC1E45AFF4F6091190670911A0678
:1028F00080911B0690911C060C94344A0E94EB2593
:102900006AE070E00E94DF498091160690E0681747
:10291000790749F410C00E94CB252091150630E0BC
:102920008217930741F081E08093080304C00E945E
:10293000CB25892BC1F36091190670911A068091FD
:102940001B0690911C060E94EB256AE070E00E9435
:10295000DF49609316066091190670911A068091FE
:102960001B0690911C060E94CB258093150681E0E2
:10297000809308068BE090E00E94400710920703C6
:1029800010921D01E0919C0584E0E89FF001112464
:10299000E655FE4F80819181A281B381809303032C
:1029A00090930403A0930503B09306030E948D4007
:1029B000C0900303D0900403E0900503F090060359
:1029C0006C0D7D1D8E1D9F1D6093FF027093000393
:1029D00080930103909302030E948D408090FF0238
:1029E00090900003A0900103B09002038616970612
:1029F000A806B90620F0809108038111F0C08091EB
:102A00001C01882309F464C0EDE0F1E08AE08193C1
:102A100091E0E431F907D9F76091190670911A062F
:102A200080911B0690911C060E94CB25CAE0D0E045
:102A3000BE010E94DF4960931401609119067091F4
:102A40001A0680911B0690911C060E94CB25BE01A0
:102A50000E94DF49809315016091190670911A0652
:102A600080911B0690911C060E94EB25BE010E94DE
:102A7000DF49609316016091190670911A068091E2
:102A80001B0690911C060E94EB25BE010E94DF49A7
:102A9000809317016091190670911A0680911B06A8
:102AA00090911C060E94F125BE010E94DF496093AF
:102AB00018016091190670911A0680911B06909179
:102AC0001C060E94F125BE010E94DF498093190176
:102AD00010921C010E948D400091F7021091F802A3
:102AE0002091F9023091FA020C591F4F2F4F3F4F9E
:102AF000061717072807390708F0EEC0EEE0F1E0E7
:102B0000ADE0B1E081918D9381E0EB31F807D1F731
:102B10008091F6028F5F8093F6020E948D40609351
:102B2000F7027093F8028093F9029093FA02809171
:102B3000F602873031F51092F6028AE195E00E94A4
:102B40006B358AE195E00E9435358CEF94E00E9468
:102B50006B358CEF94E00E94353581E080931D0148
:102B600080931C01109208038091830580931306C3
:102B70000E94860E89E090E00E9440071092310684
:102B8000ABC080910D018093410180910E01809333
:102B9000400180910F0180933F018091100180934B
:102BA0003E018091110180933D018091120180933B
:102BB0003C018091130180933B0120E040E060E004
:102BC00080E0DF91CF911F910F91FF90EF90DF9008
:102BD000CF90BF90AF909F908F900C942A040E944A
:102BE0008D406B017C010E948D400091FB02109191
:102BF000FC022091FD023091FE02601B710B820BE2
:102C0000930B653671058105910508F465C08C1834
:102C10009D08AE08BF08B7FE03C0812C912C54015B
:102C2000CBE3D1E0B4E6CB2ED12CE12CF12C1AE091
:102C30008091030390910403A0910503B0910603D2
:102C4000AC01BD017695679557954795481559058F
:102C50006A057B0560F4B701A601480D591D6A1D80
:102C60007B1D84179507A607B70730F409C0C81461
:102C7000D904EA04FB0424F480910703888305C087
:102C8000188380E090E00E944007219694E6C90EE8
:102C9000D11CE11CF11C80E2C81683E0D806E104D7
:102CA000F10431F620E040E060E080E00E942A0478
:102CB000809107038F5F8A3019F08093070302C069
:102CC000109207030E948D406093FB027093FC02F8
:102CD0008093FD029093FE02DF91CF911F910F919F
:102CE000FF90EF90DF90CF90BF90AF909F908F902C
:102CF00008958091B205882359F180910A068111C7
:102D000027C082E10E944941853F91400CF18091AA
:102D10000B06882331F060E070E085E993E00C94C5
:102D20006E3281E080930B060E94860EE091B20520
:102D300084E0E89FF0011124E059FE4F4081518169
:102D40006281738124EE31E085E993E00C94553182
:102D500008951F93CF93DF93CDB7DEB7A4970FB637
:102D6000F894DEBF0FBECDBF80912706882329F0DF
:102D70008091BC05882309F41EC164E572E0CE0190
:102D80004F960E94CB468091BB058230B1F070F423
:102D9000813009F009C16091190670911A0680917D
:102DA0001B0690911C060E94F12515C0833009F482
:102DB00062C0843009F494C0F7C060911906709124
:102DC0001A0680911B0690911C060E94EB2565E077
:102DD00070E00E94DF4911E0892B09F010E04AE021
:102DE00060918006CE0101960E9419474AE06091E9
:102DF0007F06CE0107960E9419474AE060917E0641
:102E0000CE0143960E9419474AE060917D06CE01AB
:102E100049960E941947BE01675E7F4FCE010D960D
:102E20000E94F846BE016D5E7F4FCE010D960E9456
:102E30007247BE01695F7F4F0E947247BE016F5F9C
:102E40007F4F0E947247BC01CE014F960E94E1461F
:102E5000CE010D960E945D46CE0149960E945D46C8
:102E6000CE0143960E945D46CE0107960E945D46C4
:102E7000CE0101967BC06091190670911A0680916F
:102E80001B0690911C060E94EB25892B09F472C049
:102E90006091190670911A0680911B0690911C068C
:102EA0000E94EB250F9709F465C060911906709197
:102EB0001A0680911B0690911C060E94EB254E97E6
:102EC00009F458C06091190670911A0680911B068A
:102ED00090911C060E94EB258D9709F065C04AC0B1
:102EE0006091190670911A0680911B0690911C063C
:102EF0000E94CB25892B09F45CC060911906709162
:102F00001A0680911B0690911C060E94EB25892BC6
:102F100009F44FC010E04AE060917E06CE010796AA
:102F20000E9419474AE060917D06CE010D960E94ED
:102F30001947BE01635F7F4FCE0101960E94F8469C
:102F4000BE01695F7F4FCE0101960E947247BC01AE
:102F5000CE014F960E94E146CE0101960E945D4649
:102F6000CE010D960E945D46CE0107960E945D46F9
:102F70001123D1F0BE01615E7F4FCE0101960E9408
:102F8000F846BE016F5F7F4F80915D0390915E03B5
:102F90000E94213CCE0101960E945D4680915D0316
:102FA00090915E030E943A3CCE014F960E945D468E
:102FB00002C011E0B0CFA4960FB6F894DEBF0FBEEA
:102FC000CDBFDF91CF911F910895833079F030F418
:102FD000813051F0823069F48FE00BC0843041F0D1
:102FE000853039F48EE105C08AE003C084E101C078
:102FF00089E1682F70E080E090E00E94AA48AB0170
:10300000BC0180915D0390915E030C94B53B082F49
:103010000E943F08C0E0D0E010E0C430D1057CF44D
:10302000A8010C2E02C0559547950A94E2F741700D
:103030006C2F8AE495E00E945F362196EECF64EF14
:1030400071E080E090E00E94BC40C0E0D0E0A801C8
:103050000C2E02C0559547950A94E2F7417055270A
:1030600081E048276C2F8AE495E00E945F36219624
:10307000C430D10561F764EF71E080E090E00E9418
:10308000BC40C0E0D0E0C9CFCF92DF92EF92FF9278
:103090000F931F93CF93DF93CDB7DEB76E970FB625
:1030A000F894DEBF0FBECDBF40EA56E861E070E0A5
:1030B0008EE497E00E9417332FEF3FEFA90168EDF0
:1030C00071E08EE497E00E94273320E040E060E06A
:1030D00080E00E94730826E040E052EC61E070E07E
:1030E0008DE198E00E949C4361E084E00E941042E0
:1030F00061E085E00E94104261E086E00E9410429B
:1031000061E087E00E94104261E08FE10E9410427E
:1031100061E08DE10E94104261E088E00E9410426F
:1031200061E0809133060E94104261E08091320696
:103130000E94104261E089E00E94104260E08FE14D
:103140000E94494260E088E00E94494260E080912C
:1031500033060E94494260E0809132060E94494253
:1031600060E089E00E94494262E08FE00E941042E4
:1031700062E08EE00E94104262E081E10E94104213
:1031800062E080E10E9410428AE495E00E94F035FE
:1031900010E041E0612F8AE495E00E9454361F5F01
:1031A0001031B9F706E312E0D8016D918D0140E0CE
:1031B0008AE495E00E945F36B2E00D331B07A1F769
:1031C00064EF71E080E090E00E94BC408CEF94E0FE
:1031D0000E946B358DEE94E00E946B358AE195E09C
:1031E0000E946B358BE095E00E946B358DEE94E08C
:1031F0000E943535892B39F48CEF94E00E943535E7
:10320000892B09F44FC280E090E00E946F4D8F3F00
:1032100009F12FE7E22E25E0F22E01E010E0C801CF
:103220000E946F4DF70180838F3F31F4F801EA501F
:10323000FE4F8081D7018C930F5F1F4FBFEFEB1ABA
:10324000FB0A0034110559F790ECE92E95E0F92EB0
:1032500024E63CC087EFE82E81E0F82E01E010E084
:10326000F70161917F01C8010E94774D0F5F1F4FE9
:1032700000341105A9F760E080E090E00E94774DEE
:1032800014E603E0010F60E0812F90E00E94774D8B
:103290001F5F1013F8CF1C3AA1F7D6CF822F800FF3
:1032A00090E02E8F0E946F4DF701E00FF11F2E8DE1
:1032B0008A3078F480830F5F1F4F0330110571F758
:1032C0002D5FF3E0EF0EF11C2C3A29F000E010E046
:1032D000E5CF1082F0CF8BE080937E058091BA0518
:1032E000811105C08EE1809333068AE004C08AE034
:1032F000809333068EE18093320668E08E010F5F83
:103300001F4FC8010E94432F81E1F801ABE4B5E0F3
:1033100001900D928A95E1F760913306C8010E94F1
:10332000432F81E1F801ACE5B5E001900D928A955B
:10333000E1F760913206C8010E94432F81E1F80154
:10334000ADE6B5E001900D928A95E1F760E070E09E
:1033500080E090E00E9444058091820580932606DB
:1033600080918305809313068091840580932406C1
:10337000809185058093250680919E05882349F0DC
:1033800024E0829FC0011124AA2797FDA095BA2F9F
:1033900004C081E090E0A0E0B0E080932906909323
:1033A0002A06A0932B06B0932C0680919F0590E0EF
:1033B0000E945108AC0190933A0180933901009723
:1033C00019F41092230603C081E080932306662738
:1033D00057FD6095762F26E08AEB98E00E949C438B
:1033E0008091AC05982F9D7F913011F49093180631
:1033F000823011F0843019F482E0809318068091B5
:10340000BD050E94E5170E942E032CE0FE01729676
:10341000DF01322F1D923A95E9F784E493E5A4E5A4
:10342000B0E08A8B9B8BAC8BBD8B1F8A1E8A8091F0
:10343000A305888F8091A405898F8091A2058A8F2A
:103440008091A5058B8F80911D0690911E069D8F02
:103450008C8FD801E22F1D92EA95E9F783E594E578
:10346000A4E4B0E089839A83AB83BC831E821D826F
:103470008091A9058F838091AA0588878091A805EE
:1034800089878091AB058A878DB79EB70C970FB659
:10349000F8949EBF0FBE8DBFADB7BEB71196F801B1
:1034A00001900D922A95E1F7CA88DB88EC88FD88A7
:1034B0000E891F89288D398D4A8D5B8D6C8D7D8D90
:1034C00084E396E00E94072F8BE095E00E9435355B
:1034D0000FB6F894DEBF0FBECDBF892B09F046C0F2
:1034E0000E948D406B017C0181E0809308068BE097
:1034F00090E00E94400761E087E00E94494261E05D
:103500008FE10E94494210E0B0EECB0EB3E9DB1E22
:10351000B4E0EB1EF11C0E948D406C157D058E05FC
:103520009F05C0F4EBE3F1E0119321E0E234F207F0
:10353000D9F720E040E060E080E00E942A0462E3E6
:1035400070E080E090E00E94BC401F5F1A3019F7E5
:1035500010E0E1CF80E090E00E94400760E087E06B
:103560000E94494260E08FE10E9449428AE195E071
:103570000E943535892BB1F561E087E00E94494210
:1035800061E08FE10E9449420E943F0881E0809300
:1035900008068BE090E00E94400710E0EBE3F1E0CA
:1035A000119331E0E234F307D9F76CED75E080E078
:1035B00090E00E94BC4020E040E060E080E00E949B
:1035C0002A041F5F1B3051F70E943F0880E090E003
:1035D0000E94400760E087E00E94494260E08FE17E
:1035E0000E94494210E040E0612F8AE495E00E9489
:1035F0005F361F5F1430B9F710E041E0612F8AE4B5
:1036000095E00E945F3664EF71E080E090E00E94F8
:10361000BC401F5F143089F764E873E080E090E0FD
:103620000E9406288FEE93E30E94F0270E94E9276C
:10363000029719F08FE00E9407180E94EF330E9452
:10364000CC2680912306882331F023E043E063E019
:1036500082E00E94730886E390E00E94F03C8C01B7
:1036600020E030E040E451E46DE170E00E94F23C83
:1036700010935E0300935D03C8010E94B03B0E945B
:10368000860E0E943F086E960FB6F894DEBF0FBEFE
:10369000CDBFDF91CF911F910F91FF90EF90DF9001
:1036A000CF9008956FEF80E090E00E94774DABCD12
:1036B000CF92DF92EF92FF920F931F93CF93DF93FE
:1036C000CDB7DEB76D970FB6F894DEBF0FBECDBF96
:1036D00080913001882361F00E948D4060932D0617
:1036E00070932E0680932F0690933006109230012F
:1036F00080911803803389F50E94B8276AE070E052
:103700000E94DF49182F80912F01811721F1833604
:1037100011F10E94060A382F809317038091180335
:103720002AE0622F0E94D349809341019093400187
:1037300020933F0120933E01832F0E94D349809321
:103740003D0190933C0120933B0120E041E060E08B
:1037500080E00E942A0410932F018AE195E00E94E4
:103760003535892B51F48AE195E00E942135653980
:1037700071418105910508F0DEC58AE195E00E945E
:10378000AB358823C9F046E950E060E070E08AE19B
:1037900095E00E941B350E948D4060932D0670932A
:1037A0002E0680932F06909330060E94780E80910B
:1037B00018038F5F809318038BE095E00E94AB3570
:1037C0008823C9F046E950E060E070E08BE095E0C6
:1037D0000E941B350E948D4060932D0670932E062B
:1037E00080932F06909330060E94780E80911803E4
:1037F00081508093180380911803909116038917C4
:1038000049F0E82FF0E0E258FA4F908190931703C7
:10381000809316038CEF94E00E94AB358823C1F0AF
:1038200046E950E060E070E08CEF94E00E941B35C8
:103830000E948D4060932D0670932E0680932F0674
:103840009093300681E090E09093BF058093BE0591
:103850008DEE94E00E94AB358823C1F046E950E03C
:1038600060E070E08DEE94E00E941B350E948D4078
:1038700060932D0670932E0680932F06909330064A
:103880008FEF9FEF9093BF058093BE058091BE059B
:103890009091BF05892B09F40DC5809118038033E1
:1038A00019F081110E94780E8091180390E0803405
:1038B000910508F0FFC4FC01EC59FF4F0C94344A09
:1038C0008FEF898380917E05AE014F5F5F4F60E08F
:1038D00070E090E00E940005EDC4198281E08A83C7
:1038E00080917F05AE014F5F5F4F62E070E090E036
:1038F0000E94000580937F0580931703DBC4198223
:1039000081E08A8380918005AE014F5F5F4F62E066
:1039100070E090E00E94000580931703809380057B
:10392000C9C48FEF898380918105AE014F5F5F4FDE
:1039300064E070E090E00E9400058093170380939C
:103940008105B8C48FEF898380918205AE014F5FF6
:103950005F4F69E070E090E00E94000580931703DC
:1039600080938205A7C489E0E9E4F1E0DE011196C5
:1039700001900D928A95E1F780918305AE014F5F2A
:103980005F4F69E070E090E00E94000580931703AC
:1039900080938305809313060E94860E8BC48FEF5D
:1039A000898380918405AE014F5F5F4F6AE070E0CC
:1039B00090E00E9400058093170380938405809314
:1039C000240678C489E0E9E4F1E0DE011196019073
:1039D0000D928A95E1F780918505AE014F5F5F4FAB
:1039E00069E070E090E00E940005809317038093E7
:1039F0008505809325065EC48FEF898380918605B7
:103A0000AE014F5F5F4F68E170E090E00E940005FB
:103A100080931703809386054DC48FEF898380912F
:103A20008705AE014F5F5F4F68E170E090E00E9454
:103A3000000580931703809387053CC48FEF89832B
:103A400080918805AE014F5F5F4F63E070E090E0CA
:103A50000E94000580931703809388052BC48FEF85
:103A6000898380918905AE014F5F5F4F6AE070E006
:103A700090E00E94000580931703809389051AC483
:103A80008FEF898380918A05AE014F5F5F4F68E0B9
:103A900070E090E00E9400058093170380938A05F0
:103AA00009C48FEF898380918B05AE014F5F5F4F13
:103AB00069E070E090E00E94000580931703809316
:103AC0008B05F8C38FEF898380918C05AE014F5F22
:103AD0005F4F6AE070E090E00E940005809317035A
:103AE00080938C05E7C38FEF898380918D05AE01AC
:103AF0004F5F5F4F68E170E090E00E9400058093A7
:103B0000170380938D05D6C38FEF898380918E052F
:103B1000AE014F5F5F4F68E170E090E00E940005EA
:103B20008093170380938E05C5C38FEF898380919F
:103B30008F05AE014F5F5F4F63E070E090E00E9441
:103B400000058093170380938F05B4C38FEF89839B
:103B500080919005AE014F5F5F4F6AE070E090E0AA
:103B60000E9400058093170380939005A3C38FEFF5
:103B7000898380919105AE014F5F5F4F68E070E0EF
:103B800090E00E940005809317038093910592C3F3
:103B90008FEF898380919205AE014F5F5F4F69E09F
:103BA00070E090E00E9400058093170380939205D7
:103BB00081C38FEF898380919305AE014F5F5F4F83
:103BC0006AE070E090E00E94000580931703809304
:103BD000930570C38FEF898380919405AE014F5F89
:103BE0005F4F68E170E090E00E940005809317034A
:103BF000809394055FC38FEF898380919505AE0113
:103C00004F5F5F4F68E170E090E00E940005809395
:103C10001703809395054EC38FEF89838091960596
:103C2000AE014F5F5F4F63E070E090E00E940005DF
:103C300080931703809396053DC38FEF898380910E
:103C40009705AE014F5F5F4F6AE070E090E00E9421
:103C5000000580931703809397052CC38FEF89830A
:103C600080919805AE014F5F5F4F68E070E090E093
:103C70000E94000580931703809398051BC38FEF64
:103C8000898380919905AE014F5F5F4F69E070E0D5
:103C900090E00E94000580931703809399050AC362
:103CA0008FEF898380919A05AE014F5F5F4F6AE085
:103CB00070E090E00E9400058093170380939A05BE
:103CC000F9C28FEF898380919B05AE014F5F5F4FF3
:103CD00069E070E090E00E940005809317038093F4
:103CE0009B05E8C28FEF898380919C05AE014F5FF1
:103CF0005F4F64E070E090E00E940005809317033E
:103D000080939C05D7C28FEF898380919D05AE017A
:103D10004F5F5F4F63E070E090E00E94000580938A
:103D2000170380939D05C6C28FEF898380919E05FE
:103D3000AE014F5F5F4F63E070E090E00E940005CE
:103D40008093170380939E05882349F0A4E08A9FFF
:103D5000C0011124AA2797FDA095BA2F04C081E0C5
:103D600090E0A0E0B0E08093290690932A06A0930B
:103D70002B06B0932C069EC28FEF898380919F05FE
:103D8000AE014F5F5F4F66E070E090E00E9400057B
:103D90008093170390919F05891719F091E09093F4
:103DA000150380939F058823A9F090E00E94510895
:103DB00090933A0180933901AC01662757FD6095D5
:103DC000762F26E08AEB98E00E949C4381E0809366
:103DD000230670C2109223066DC28FEF89838091F3
:103DE000A005AE014F5F5F4F6EE070E090E00E9473
:103DF0000005809317038093A0055CC2198281E0BF
:103E00008A838091A105AE014F5F5F4F62E070E051
:103E100090E00E940005809317038093A1054AC299
:103E20008FEF89838091A205AE014F5F5F4F6DE0F8
:103E300070E090E00E940005809317038093A20534
:103E400039C285E0E2E5F1E0DE01119601900D92C4
:103E50008A95E1F78091A305AE014F5F5F4F65E062
:103E600070E090E00E940005809317038093A30503
:103E700021C287E0E7E5F1E0DE01119601900D92A5
:103E80008A95E1F78091A405AE014F5F5F4F67E02F
:103E900070E090E00E940005809317038093A405D2
:103EA00009C28FEF89838091A505AE014F5F5F4FF7
:103EB00068E170E090E00E94000580931703809312
:103EC000A505F8C18FEF89838091A605AE014F5FEC
:103ED0005F4F6EE070E090E00E9400058093170352
:103EE0008093A605E7C1198281E08A838091A705A6
:103EF000AE014F5F5F4F62E070E090E00E9400050E
:103F0000809317038093A705D5C18CE0EEE5F1E01F
:103F1000DE01119601900D928A95E1F78091A80536
:103F2000AE014F5F5F4F6CE070E090E00E940005D3
:103F3000809317038093A805BDC185E0E2E5F1E019
:103F4000DE01119601900D928A95E1F78091A90505
:103F5000AE014F5F5F4F65E070E090E00E940005AA
:103F6000809317038093A905A5C187E0E7E5F1E0F9
:103F7000DE01119601900D928A95E1F78091AA05D4
:103F8000AE014F5F5F4F68E070E090E00E94000577
:103F9000809317038093AA058DC18FEF8983809149
:103FA000AB05AE014F5F5F4F68E170E090E00E94AB
:103FB0000005809317038093AB057CC18FEF898345
:103FC0008091AC05AE014F5F5F4F66E070E090E01E
:103FD0000E940005809317038093AC05982F9D7F66
:103FE000913011F490931806823019F0843009F062
:103FF00061C182E0809318065DC18FEF8983809153
:10400000AD05AE014F5F5F4F64E670E090E00E9447
:104010000005809317038093AD054CC18FEF898312
:104020008091AE05AE014F5F5F4F60E070E090E0C1
:104030000E9400050E94060A8093AE053BC18FEFE7
:1040400089838091AF05AE014F5F5F4F62E370E0FF
:1040500090E00E940005809317038093AF052AC16A
:104060008FEF89838091B005AE014F5F5F4F6AE0AB
:1040700070E090E00E940005809317038093B005E4
:1040800019C18FEF89838091B105AE014F5F5F4FFA
:104090006AE070E090E00E9400058093170380932F
:1040A000B10508C18FEF89838091B205AE014F5FE2
:1040B0005F4F67E070E090E00E9400058093170377
:1040C0008093B205F7C0198281E08A838091B3059D
:1040D000AE014F5F5F4F62E070E090E00E9400052C
:1040E000809317038093B305E5C08FEF8983809198
:1040F000B405AE014F5F5F4F6AE070E090E00E9450
:104100000005809317038093B405D4C08FEF898393
:104110008091B505AE014F5F5F4F6AE070E090E0BF
:104120000E940005809317038093B505C3C08FEFED
:1041300089838091B605AE014F5F5F4F65E170E006
:1041400090E00E940005809317038093B605B2C0EB
:104150008FEF89838091B705AE014F5F5F4F64E0B9
:1041600070E090E00E940005809317038093B705EC
:10417000833021F481E0809342019CC0109242017F
:1041800099C08FEF89838091B805AE014F5F5F4F73
:104190006CE370E090E00E94000580931703809329
:1041A000B80588C08FEF89838091B905AE014F5F54
:1041B0005F4F6CE370E090E00E940005809317036E
:1041C0008093B90577C08FEF8A8B8091BA05AE01D5
:1041D0004E5E5F4F62E070E090E00E9400058093C9
:1041E00017038093BA05811105C08EE180933306D1
:1041F0008AE004C08AE0809333068EE18093320621
:1042000060913306CE0101960E94432F81E1FE01A9
:104210003196ACE5B5E001900D928A95E1F7609199
:104220003206CE0101960E94432F81E1FE013196B4
:10423000ADE6B5E001900D928A95E1F73BC08FEFB6
:1042400089838091BB05AE014F5F5F4F65E070E0F1
:1042500090E00E940005809317038093BB052AC05D
:104260008FEF89838091BC05AE014F5F5F4F62E0A5
:1042700070E090E00E940005809317038093BC05D6
:1042800019C085E0E2E5F1E0DE01119601900D92A2
:104290008A95E1F78091BD05AE014F5F5F4F65E004
:1042A00070E090E00E940005809317038093BD05A5
:1042B0000E94E517809118038F3F19F48FE38093D4
:1042C000180380911803811104C08BE080931703B9
:1042D0001AC08034C1F44FE7E42E45E0F42E01E02B
:1042E00010E0F70161917F01C8010E94774D0F5FD7
:1042F0001F4F00341105A9F780911503882319F089
:104300008CE00E94071880911803803419F10E94F4
:104310008D4000912D0610912E0620912F06309190
:104320003006601B710B820B930B613C744D814016
:10433000910580F49BC040E050E0BA018AE195E02D
:104340000E941B350E94780E85E080933106109202
:104350001803AAC00E943F08E091B505F0E0EE0FF7
:10436000FF1FE253FE4F6081718189E00E9470411E
:104370008091390190913A01892B31F423E043E097
:1043800060E080E00E9473080E942E032CE0FE0192
:104390007296DF01822F1D928A95E9F784E493E5F6
:1043A000A4E5B0E08A8B9B8BAC8BBD8B1F8A1E8AE9
:1043B0008091A305888F8091A405898F8091A205A3
:1043C0008A8F8091A5058B8F80911D0690911E0686
:1043D0009D8F8C8F7197DF01822F1D928A95E9F74F
:1043E00083E594E5A4E4B0E089839A83AB83BC833E
:1043F0001E821D828091A9058F838091AA058887DE
:104400008091A80589878091AB058A87ADB7BEB733
:104410001C970FB6F894BEBF0FBEADBF11960190AA
:104420000D922A95E1F7CA88DB88EC88FD880E8911
:104430001F89288D398D4A8D5B8D6C8D7D8D84E330
:1044400096E00E94072F0E94250F0E943D0F1092B8
:104450000A0681E080933001109218031092310611
:104460000FB6F894DEBF0FBECDBF1EC080911803FB
:104470002AE0622F0E94D34980934101909340012A
:1044800020933F0120933E01809117030E94D3495E
:1044900080933D0190933C0120933B0120E041E05B
:1044A00060E080E00E942A046D960FB6F894DEBFAB
:1044B0000FBECDBFDF91CF911F910F91FF90EF9075
:1044C000DF90CF900895CF92DF92EF92FF920F93FB
:1044D0001F93CF93DF9384E896E00E9427288DB73F
:1044E0009EB70C970FB6F8949EBF0FBE8DBFADB7A9
:1044F000BEB711968CE0ECE5F6E001900D928A953E
:10450000E1F7C0906806D0906906E0906A06F090E6
:104510006B0600916C0610916D0620916E0630912D
:104520006F0640917006509171066091720670910D
:10453000730684E396E00E941F2DCBE4D5E08DB78F
:104540009EB70C960FB6F8949EBF0FBE8DBF60E06D
:10455000CE010E94432F619695E0CE37D907B9F777
:1045600065E18CE395E00E94DA376CE375E089E25F
:1045700095E00E94A73826E430E040E050E061E199
:104580008AE195E00E94FF3426E430E040E050E00C
:1045900060E18BE095E00E94FF3426E430E040E0EB
:1045A00050E06FE08CEF94E00E94FF3426E430E0AE
:1045B00040E050E06EE08DEE94E00E94FF3481E434
:1045C00094E00E94A73085E993E00E94A73020E0A4
:1045D00030E040E451E46DE170E08FE593E0DF917D
:1045E000CF911F910F91FF90EF90DF90CF900C949F
:1045F000F23C89EA92E09093600380935F0387E640
:1046000093E00C945D468F929F92AF92BF92CF92AF
:10461000DF92EF92FF926B017C010E948D404B0173
:104620005C018AEB98E00E94A8421816190654F41F
:104630008AEB98E00E94C142682F84E896E00E94CD
:10464000972CEFCF0E948D40681979098A099B0940
:104650006C157D058E059F0520F3FF90EF90DF9090
:10466000CF90BF90AF909F908F9008950F931F931E
:1046700080915D0390915E030E946A3C81E494E026
:104680000E94993185E993E00E9499318091380127
:10469000833051F080912306882331F062E070E08E
:1046A00080E090E00E9403230E94B8276AE070E057
:1046B0000E94DF49182F80913701811709F457C0F4
:1046C000109209068EE497E00E9443330E9419027B
:1046D00080913106811105C08091260690E00E94EC
:1046E00040070E94B8272091B90530E08217930750
:1046F00069F480912806882321F080919B058730FA
:1047000028F080913106882309F4F7C08091810553
:10471000811104C08091AC058823A9F08091140612
:10472000813021F48091280681110DC00E94B827A4
:104730002091B80530E08217930729F48091310663
:10474000882309F4DEC08091280681110EC0809173
:10475000310681110AC08091AF0581110E94860E39
:104760008091B20581110E947916109337018091D2
:10477000550381110DC00E948D40609339037093E1
:104780003A0380933B0390933C0381E0809355036D
:104790000E948D400091390310913A0320913B0310
:1047A00030913C03601B710B820B930B009138011D
:1047B00010E020E030E0601771078207930728F0CF
:1047C00080913106882309F4A0C060911906709188
:1047D0001A0680911B0690911C060E94EB256AE048
:1047E00070E00E94DF49182F80913601811709F18E
:1047F0006091190670911A0680911B0690911C0613
:104800000E94F125892BA9F480913106811111C0F4
:1048100080912306882319F081E00E944F0980913E
:104820002706811102C00E943D0F0E94A916109315
:1048300036018AE195E00E946B358AE195E00E949D
:104840003535892B71F48AE195E00E9421356D3D63
:1048500075408105910528F080913106882309F47F
:1048600065C08BE095E00E946B358DEE94E00E9470
:104870006B358DEE94E00E94AB35882321F080915A
:104880002806811164C08CEF94E00E946B358CEF98
:1048900094E00E94AB35882329F08091310688236B
:1048A00009F473C080913106833091F038F481307F
:1048B00061F0823091F40E9442140FC0843059F0AC
:1048C000853059F40E94251008C00E949E0A05C038
:1048D0000E94B21102C00E94581B6091240670E031
:1048E0008091250690E00E94440523E043E063E0C8
:1048F00083E01F910F910C94730882E0809331063E
:1049000005CF81E0809331061ECF20E040E060E0DB
:1049100081E00E942A040E948D40609339037093C5
:104920003A0380933B0390933C034FCF83E0809303
:1049300031060E948D4060932D0670932E06809361
:104940002F069093300681E080930A068ACF20914B
:10495000290630912A0640912B0650912C06A8E991
:10496000BAE30E94504AAB01BC012CEA31E181E478
:1049700094E00E9455311092280681E0809327062A
:1049800080930A060E94860E7ECF8091420191E0BC
:104990008927809342010E94780E84CF6F927F9284
:1049A0008F929F92AF92BF92CF92DF92EF92FF923F
:1049B0000F931F93CF93DF93EA012CE3C22ED12CE8
:1049C000E12CF12CA70196010E94F3496883CA01EA
:1049D000B901A70196010E94F3496983CA01B9018F
:1049E00028E130E040E050E00E94F34949015A01DB
:1049F0006A83CA01B9016C5F7F4F8F4F9F4F27E0D9
:104A000030E040E050E00E94F3496F5F6B8300E0CC
:104A100010E0980140E054E6652E712C60E9C62E46
:104A2000DD24D394E42FF0E0EE54F84F7F0183E0CF
:104A3000E822FF24E114F10489F4CF01B3010E94BC
:104A4000DF49892B29F08EE691E0A0E0B0E00AC0B2
:104A5000CF01B6010E94DF49892BA9F38DE691E0D1
:104A6000A0E0B0E0080F191F2A1F3B1FD901C801A1
:104A7000AA27BB2788169906AA06BB0610F04F5F27
:104A8000D1CF4E83E114F10499F4CF0164E670E0D4
:104A90000E94DF49892B29F08EE691E0A0E0B0E08A
:104AA0000BC0CF0160E971E00E94DF49892BA1F3BF
:104AB0008DE691E0A0E0B0E0081B190B2A0B3B0B40
:104AC000801A910AA20AB30ACF0164E670E00E943C
:104AD000DF499C01CF0160E971E00E94DF49EDE30D
:104AE000F2E0A0E0A13059F4E114F10451F42115F1
:104AF000310511F04DE106C00097E1F302C040819D
:104B000001C04CE150E060E070E084169506A60616
:104B1000B70640F0841A950AA60AB70AAF5F319625
:104B2000AC3001F7AF5FAD8383948C82DF91CF917E
:104B30001F910F91FF90EF90DF90CF90BF90AF90BB
:104B40009F908F907F906F900895CF92DF92EF9219
:104B5000FF926B017C018091430790914407A091E3
:104B60004507B0914607C816D906EA06FB0671F05C
:104B700047E457E0C701B6010E94CE24C092430724
:104B8000D0924407E0924507F0924607FF90EF90DD
:104B9000DF90CF9008950E94A5258091490790E06D
:104BA00008950E94A5252091490730E081E02C302E
:104BB00031050CF480E008950E94A5252091490755
:104BC000222331F0822F90E02D3020F00C970895B1
:104BD0008CE090E008950E94A5258091480790E020
:104BE00008950E94A5258091470790E008950E94AE
:104BF000A52580914B0790E008950E94A5258091FE
:104C00004A0790E008950E94A52580914C0790E006
:104C100008950E94A52580914D0790E08E54984FED
:104C200008956F927F928F929F92AF92BF92CF9290
:104C3000DF92EF92FF920F931F93CF93DF93FC01CC
:104C4000C680AC2DB0E020E833E341EE51E00E9495
:104C5000504A4B015C0122EB37E06D01C4E6D0E025
:104C600000E911E0C901825B97408C159D05DCF4D9
:104C7000C90183709927892B99F4C901BE010E944B
:104C8000DF49892B31F4C901B8010E94DF49892B22
:104C900039F480E8880E81E5981E81E0A81EB11CD9
:104CA0002F5F3F4FDFCF6580712C8EE4C81A88EFED
:104CB000D80AC60164E670E00E94DF498C01C60193
:104CC00060E971E00E94DF497C01C1E0D0E083E04F
:104CD000C822DD24C615D7052CF5C230D10589F4CC
:104CE000C114D10471F40115110519F4E114F10492
:104CF00041F480E8880E8BE3981E86E2A81EB11C62
:104D00000FC0DE01A45CBD4FAC91B0E020E831E5FE
:104D100041E050E00E94504A860E971EA81EB91E20
:104D20002196D8CF4181228130E0A0E1BEE00E94EF
:104D30003A4A6B017C01242F30E0ACE3B0E00E94E2
:104D40003A4AC60ED71EE81EF91E8081C80ED11C35
:104D5000E11CF11CA481B0E0119720E831E541E0AD
:104D600050E00E945B4AC60ED71EE81EF91EC80C12
:104D7000D91CEA1CFB1CC701B601DF91CF911F9122
:104D80000F91FF90EF90DF90CF90BF90AF909F90EA
:104D90008F907F906F9008950F931F9360933D07BE
:104DA00070933E0780933F07909340070091430123
:104DB000109144012091450130914601060F171FC3
:104DC000281F391F009335071093360720933707A4
:104DD0003093380782E090E0909334078093330754
:104DE0000E948D406093390770933A0780933B0788
:104DF00090933C071F910F9108958F929F92AF92CD
:104E0000BF92CF92DF92EF92FF920F931F930E9477
:104E10008D40C0903907D0903A07E0903B07F09062
:104E20003C0740914107509142076C197D098E095A
:104E30009F094A0128E1821A2CEF920AAA2497FCC2
:104E4000A094BA2C00913D0710913E0720913F0796
:104E500030914007681579058A059B0538F10F5F89
:104E60001F4F2F4F3F4F00933D0710933E07209356
:104E70003F0730934007D701C60188519C4FAF4F81
:104E8000BF4F662757FD6095762F840F951FA61F8D
:104E9000B71F8093390790933A07A0933B07B093CD
:104EA0003C071092420710924107B1CF809135071D
:104EB00090913607A0913707B09138070817190766
:104EC0002A073B07C8F1E0913107F091320730978C
:104ED00099F10995611571058105910519F00E94F7
:104EE000CC262AC08091430190914401A0914501B4
:104EF000B091460140913D0750913E0760913F07B8
:104F000070914007840F951FA61FB71F8093350728
:104F100090933607A0933707B093380781E090E06D
:104F20002091330730913407232B11F480E090E077
:104F3000909334078093330760913D0770913E074B
:104F400080913F07909140071F910F91FF90EF9044
:104F5000DF90CF90BF90AF909F908F9008950E9468
:104F6000FD260E94D12591E0811190E0892F0895BE
:104F70000E94FD260E94A5258091470790E0089594
:104F8000EF92FF920F9394E6E916F1042CF092EB66
:104F9000E91A97E0F90A03C09EE1E90EF11CE092DC
:104FA0004D0700934C0720934B078093490760936C
:104FB00048074093470787E497E00E9411260F9126
:104FC000FF90EF900C94CC2690934207809341077A
:104FD00008950E94FD26809133079091340708952B
:104FE000909332078093310780913D0790913E075F
:104FF000A0913F07B0914007809335079093360703
:10500000A0933707B09338070C94FD260F931F9396
:10501000609343017093440180934501909346014E
:1050200000913D0710913E0720913F0730914007C6
:10503000060F171F281F391F0093350710933607D7
:1050400020933707309338071F910F910895FC0183
:1050500010821182138212821482158216821782A4
:105060001086128611861386148615861686178674
:10507000118A108A128A138A148A158A168A108E47
:10508000178A118E128E138E148E158E12A213A2F1
:1050900014A215A216A217A210AA11AA12AA13AA44
:1050A00014AA15AA16AE17AEDC01AC5BBF4F1D9259
:1050B0001D921D921C92139718961C9211961C9289
:1050C000119716961D921D921D921C9219971E966D
:1050D0001C9211961C92119716961D921D921D926C
:1050E0001C9219971E961C9211961C921197169657
:1050F0001D921D921D921C9219971E961C9211963C
:105100001C92119716961D921D921D921C92199732
:105110001E961C9211961C92509682E08C931196CA
:105120001C9211961C9211961C92119611961C922B
:105130001E92129611961C921E9212961D921D920C
:105140001D921C92139714961D921D921D921C92F3
:10515000139714961D921D921D921C9213971496EC
:105160001D921D921D921C921397EA57FF4F1082B9
:1051700008952FEB260F862F992787FD90952630CF
:1051800010F4C79708956156663018F48755910951
:105190000895C0970895FF920F931F93CF93DF93C5
:1051A000EC01FF24F39488818D3211F0F12C01C0C1
:1051B0002196CE010E94E64C9B01AC01A4E6B0E032
:1051C0000E94504AFE014991242F332727FD309534
:1051D000205331092A303105A8F34E3241F521819F
:1051E000332727FD3095205331092A303105F8F453
:1051F0004AE0429F8001439F100D1124222717FD92
:105200002095322F600F711F821F931F028111277B
:1052100007FD1095005311090A30110540F42227AB
:1052200017FD2095322F600F711F821F931FFF20E3
:1052300039F090958095709561957F4F8F4F9F4F76
:10524000DF91CF911F910F91FF9008952F923F9280
:105250004F925F926F927F928F929F92AF92BF9286
:10526000CF92DF92EF92FF920F931F93CF93DF9332
:10527000D82FC92F8B010E94E64C24E630E040E095
:1052800050E00E94F34949015A019B01AC0160E8DA
:1052900076E988E990E00E94C3496B017C01F8013E
:1052A00091828082ED2FFC2F2191822F992787FDFB
:1052B0009095C0970A97C0F32E3239F51F0180E808
:1052C000882E86E9982E88E9A82EB12C9AE0492EDE
:1052D000512C612C712CF101C1911F01DD27C7FDFB
:1052E000D095E097CA30D10580F4C501B401A3017F
:1052F00092010E94F34949015A01DE010E945B4A72
:10530000C60ED71EE81EF91EE6CFA5E0B0E0A70145
:1053100096010E94504A6F5F7F4F8F4F9F4F23E04F
:1053200030E040E050E00E94F349F80122833383EB
:10533000448355831682DF91CF911F910F91FF9087
:10534000EF90DF90CF90BF90AF909F908F907F9025
:105350006F905F904F903F902F900895CF93DF9381
:10536000EC0187E0FE017096DE01129601900D922D
:105370008A95E1F787E0FE017796DE0119960190A4
:105380000D928A95E1F70E948D406E8F7F8F88A3E2
:1053900099A381E089838883DF91CF910895CF938A
:1053A000DF93EC014E815F81688579854A835B8359
:1053B0006C837D830E948D406A877B878C879D8765
:1053C00081E089838883DF91CF910895CF93DF9324
:1053D000EC014E815F81688579854A835B836C83AC
:1053E0007D830E948D406A877B878C879D8781E0C3
:1053F00089838883DF91CF910895CF93DF93EC0168
:10540000CB010E94CB286E837F8388879987DF91A9
:10541000CF910895CF93DF93EC01CB010E94E64C2E
:105420006E837F8388879987DF91CF910895FC01F0
:105430001182628173818481958124E630E040E0AD
:1054400050E00E94F349CB018053984F0895CF92CA
:10545000DF92EF92FF92FC0111826281738184815D
:10546000958134E6C32ED12CE12CF12CA7019601B5
:105470000E94F349CA01B901A70196010E94F349AC
:10548000862FFF90EF90DF90CF900895FC0111825E
:10549000628173818481958120E137E240E050E0B0
:1054A0000E94F349822F0895FC0111826281738169
:1054B0008481958120E432E44FE050E00E94F3497A
:1054C000822F0895FC01118262817381848195810C
:1054D00020E137E240E050E00E94F349CA01B901FF
:1054E00024E630E040E050E00E94F349862F089522
:1054F000CF92DF92EF92FF92FC0111826281738161
:105500008481958144E6C42ED12CE12CF12CA70195
:1055100096010E94F349CA01B901A70196010E94B0
:10552000F349862FFF90EF90DF90CF900895FC0114
:105530001182628173818481958124E630E040E0AC
:1055400050E00E94F349862F0895CF93DF93EC013A
:105550004A855B856C857D854E835F836887798707
:105560000E948D406A837B838C839D8381E0898345
:105570008883DF91CF910895CF93DF93EC01CB0126
:105580000E94CB286A877B878C879D87DF91CF918C
:105590000895CF93DF93EC014A855B856C857D850B
:1055A0004E835F83688779870E948D406A837B83FF
:1055B0008C839D8381E089838883DF91CF910895D7
:1055C000CF93DF93EC01CB010E94E64C6A877B8787
:1055D0008C879D87DF91CF910895CF93DF93EC0166
:1055E000BC0140960E941F4D0E948D4068A379A384
:1055F0008AA39BA381E08DA38CA3DF91CF91089513
:1056000040E150E00C94264DAF92BF92CF92DF92D2
:10561000FF920F931F93CF93DF93EC01FC01EB57A5
:10562000FF4FF080FF2009F49CC0319660810E94FA
:10563000B928182FFE01E957FF4F6081CE010E9463
:10564000B92840E1149F800D1124FE01EC57FF4F53
:105650009081891376C0B5964081518162817381B2
:105660004F5F5F4F6F4F7F4F4083518362837383E0
:105670008E0108561F4FD8018C91882369F0389706
:1056800040815181628173814F5F5F4F6F4F7F4FC8
:105690004083518362837383FE01EB56FF4F808109
:1056A0008823C9F0813089F5CE0182960E94CF29E6
:1056B000CE01C0960E94E629F8018081882329F155
:1056C000CE010E94AE29CE01CE960E94A52ACE011F
:1056D000845B9F4F18C0CE01C0960E94E629D80176
:1056E0008C91882341F0CE010E94AE29CE01865ACA
:1056F0009F4F0E94A52ACE0188599F4F0E94C92A18
:10570000CE018A589F4F0E94A52A8E0105561F4F31
:10571000F801C081D181209709F4FEC0D801ED9134
:10572000FC9166A177A18EA19FA10E94164D892BA5
:1057300009F0F2C0CE010E94ED2A0AA4DBA5C02D1B
:10574000EACFCB55DF4F488159816A817B814F5F1A
:105750005F4F6F4F7F4F488359836A837B83F12C60
:10576000DBC06C01B6E9CB0ED11CF60130818B5643
:105770009F4F5C018E0105561F4F311134C06E01E1
:1057800096E8C90ED11C69E472E0C6010E94164D6C
:10579000892B11F481E00BC06FE472E0C6010E9416
:1057A000164D892B19F4F501108203C082E0D50152
:1057B0008C93C756DF4F88819981F801918380834C
:1057C000F801C081D181209709F4A6C0B6018EA14D
:1057D0009FA10E94164D97FF9AC08AA59BA5D8014C
:1057E0008D939C93EDCFDC01EC91E23009F463C022
:1057F000CE018A579F4FDC012C91222309F45BC014
:10580000B0E2EB9FF0011124E32B3197E932F1056F
:1058100008F051C0EC55FF4F0C94344ABC01CE0146
:10582000C0960E94FD2947C0FE01E856FF4F81E067
:10583000213461F52CC0BE01605F7F4F09C081E05B
:10584000233509F080E08E8B36C0BE01695E7F4F44
:105850000E94262930C081E0273509F080E08D8F35
:105860002AC0BC01CE01CE9624C0BC01CE01845B0F
:105870009F4F1FC0BC01CE0182960E940A2A1BC006
:10588000FE01E856FF4F81E021330CF480E0808375
:1058900012C0BC01CE0188599F4F0E94E02A0BC064
:1058A000BC01CE018A589F4F04C0BC01CE01865A6C
:1058B0009F4F0E94BC2AF801A080B180CA57DF4FD9
:1058C000A114B10449F1D801ED91FC9166A177A131
:1058D000F50186A197A10E94164D892BE9F4D50107
:1058E00098962D913C919997F601808190E08217CE
:1058F000930794F02817390721F4BE01C5010E94CF
:10590000002BD5019A96AD90BC909B97D9CF892B4F
:1059100019F0D8011D921C928F2DDF91CF911F910C
:105920000F91FF90DF90CF90BF90AF900895CF92EE
:10593000DF92EF92FF920F931F93CF93DF931F920B
:10594000CDB7DEB76C01262FFC01E356FF4F408137
:105950005181628173814F5F5F4F6F4F7F4F4083F3
:105960005183628373838C0109561F4F8B579F4F5E
:105970007C01243279F12CF42A3069F02D30E1F5E4
:105980000AC02A3241F02C32B9F5F601EC57FF4F2C
:10599000808182278083F80180818F3060F4F60156
:1059A000E80FF11DEA57FF4F1082C60129830E94BC
:1059B000042B298101C080E0F601EA56FF4F908157
:1059C0009F5F9083F801108291E02A3209F090E005
:1059D000F70128C0F8011082F601EA56FF4F108245
:1059E00072971082719682E08083F7011082F6012F
:1059F000E856FF4F108218C0F80180818E3048F4BD
:105A000091E0980F9083F601E80FF11DEA57FF4FE0
:105A10002083F7018081811107C0F601EC57FF4F09
:105A200090819227908301C080E00F90DF91CF9109
:105A30001F910F91FF90EF90DF90CF900895CF923C
:105A4000DF92EF92FF920F931F93CF93DF93CDB727
:105A5000DEB72C970FB6F894DEBF0FBECDBFC9825C
:105A6000DA82EB82FC820D831E832F83388749877D
:105A70005A876B877C872CE0FE013196DC01019010
:105A80000D922A95E1F72CE0FE017796DC011C9639
:105A900001900D922A95E1F72C960FB6F894DEBF8F
:105AA0000FBECDBFDF91CF911F910F91FF90EF906F
:105AB000DF90CF900895AF92BF92CF92DF92EF9296
:105AC000FF920F931F93CF93DF93CDB7DEB763970A
:105AD0000FB6F894DEBF0FBECDBF3F87598B122F94
