:100000000C94B7010C94E6010C94E6010C94E60103
:100010000C94E6010C94E6010C94E6010C94E601C4
:100020000C94E6010C94414B0C94E6010C94E6010F
:100030000C94E6010C94E6010C94E6010C94E601A4
:100040000C94E6010C94E6010C94C7450C94E6016F
:100050000C9482490C94B8490C94E6010C94E60186
:100060000C94E6010C94E6010C9496440C94E60181
:100070000C942F4A0C94654A0C94E6010C94E6010A
:100080000C94E6010C94E6010C946134A006A306DE
:10009000EE06230747076A078D079507A307B107F1
:1000A00011081A082608320840084A085808680843
:1000B00074089908A508B30821090F091209150940
:1000C00018091B091E09FD15FD15E815E815F5159C
:1000D000F515011601161C1E291E3B1E4D1E5E1E27
:1000E0006F1E8B1E9E1EB81EC91EDA1EEB1EFC1E46
:1000F0000D1F1E1F2F1F401F511F621F731F841FC4
:10010000951FA61FB71FC81FD91FEA1FFB1F0C2072
:100110001D202E203F2050207820AF20C020D2204C
:10012000E320FB2013212421352147215F21772162
:100130008F21A021BF21D021E121F221032214220D
:1001400025223722482259226A2283229422A5227C
:10015000E122F2220323E62DF32DF72DFD2D032EB0
:10016000182E212E282E2D2E332E332E332E332EC5
:10017000332E332E332E332E332E332E332E332E77
:10018000332E332E332E332E332E332E332E332E67
:10019000332E332E332EE62DEC2DF32DF72DFD2DA2
:1001A000032E092E0D2E122E1A471F4724472E47C5
:1001B0005C475C47384740474847524779477C4748
:1001C0006F47734793479347804784478A478E47D3
:1001D000005EBCE2613FDD83C29C7E20A3FD1F4127
:1001E0009DC3217FFCA2401E5F01E3BD3E6082DC17
:1001F000237D9FC1421CFEA0E1BF5D0380DE3C6207
:10020000BEE0025CDF81633D7C22C09E1D43A1FFF6
:100210004618FAA427799BC584DA3866E5BB5907E6
:10022000DB856739BAE406581947A5FB7826C49AD6
:10023000653BD987045AB8E6A7F91B45C6987A24C6
:10024000F8A6441A99C7257B3A6486D85B05E7B9B6
:100250008CD2306EEDB3510F4E10F2AC2F7193CDA6
:10026000114FADF3702ECC92D38D6F31B2EC0E5096
:10027000AFF1134DCE90722C6D33D18F0C52B0EE86
:10028000326C8ED0530DEFB1F0AE4C1291CF2D7376
:10029000CA947628ABF517490856B4EA6937D58B66
:1002A0005709EBB536688AD495CB2977F4AA481656
:1002B000E9B7550B88D6346A2B7597C94A14F6A846
:1002C000742AC896154BA9F7B6E80A54D7896B3536
:1002D0001112131415160A0B0C0D0E0F0001020358
:1002E0000405000000000000000103080200090AE4
:1002F00000000000000000000000000000000000FE
:100300000407010204080102040820401020408074
:1003100080402010080402010102040810204080DF
:100320001080040404040202020204040202020215
:10033000010101010101010103030303030303039D
:1003400004040000200023002600290000002200F1
:10035000250028002B0000002100240027002A008F
:10036000020027242835AC43EC49994AC5241124BE
:100370001FBECFEFD0E4DEBFCDBF12E0A0E0B1E002
:10038000E6E5F6EA00E00BBF02C007900D92AE3D35
:10039000B107D9F729E0AEEDB2E001C01D92AC3C47
:1003A000B207E1F713E0CCE6D3E000E006C0229705
:1003B0000109FE010BBF0E94E74FC236D10780E062
:1003C0000807A9F70E941C4D0C9419530C940000C7
:1003D000809131068F5F80933106809131066AE00B
:1003E0000E94574F8093320680913106843610F078
:1003F00010923106809132068A3010F01092320647
:10040000089580916406833030F41092340660E0E1
:100410008FE10C94CD470895CF92DF92EF92FF9237
:1004200060E08AE295E00E949E3C6B017C01809135
:100430008D056AE00E94574F682F70E080E090E0E1
:100440000E94304E9B01AC01C701B6010E942C4DA9
:1004500020E030E048EC52E40E94E44E0E94FD4D62
:10046000CB01FF90EF90DF90CF900895CF93DF9373
:1004700088E0E4EEF6E0ACEDB6E001900D928A95EE
:10048000E1F780918205882349F00E94D528AB01CD
:10049000BC018AE996E00E94523002C00E94D52831
:1004A00060934A0670934B0680934C0690934D06DA
:1004B00020915F0560914A0670914B0680914C0631
:1004C00090914D06211114C00E94B427CAE0D0E0DB
:1004D000BE010E94634F6093E40660914A067091EA
:1004E0004B0680914C0690914D060E94B42713C094
:1004F0000E94A327CAE0D0E0BE010E94634F609330
:10050000E40660914A0670914B0680914C069091EA
:100510004D060E94A327BE010E94634F8093E5060B
:1005200060914A0670914B0680914C0690914D0661
:100530000E94C327CAE0D0E0BE010E94634F6093CF
:10054000E60660914A0670914B0680914C069091A8
:100550004D060E94C327BE010E94634F8093E706A9
:1005600060914A0670914B0680914C0690914D0621
:100570000E94C927BE010E94634F6093E806609104
:100580004A0670914B0680914C0690914D060E9450
:10059000C927BE010E94634F8093E906809135010F
:1005A000882349F088E0E4EEF6E0ACEDB6E0019097
:1005B0000D928A95E1F710923501DF91CF91089560
:1005C0000F931F93CF93DF93CDB7DEB727970FB667
:1005D000F894DEBF0FBECDBF80910E07882309F4CB
:1005E0004CC080911C07882309F447C00E94114623
:1005F000009126071091270720912807309129079D
:10060000601B710B820B930B6C3D7540810591054E
:10061000A0F580911D07882381F18CE197E00E946D
:100620002C2C8B838CE197E00E943A2C8A838CE1FE
:1006300097E00E94502C89838EE097E00E94EF2B78
:10064000825B8F838EE097E00E94FF2B8E838EE08B
:1006500097E00E941E2C8D83CE0101960E94E9270F
:100660000091500610915106209152063091530688
:10067000600F711F821F931F03C060E070E0CB0109
:1006800027960FB6F894DEBF0FBECDBFDF91CF9196
:100690001F910F91089510925006109251061092DA
:1006A00052061092530680917F05882341F14091B4
:1006B000800520E13EE0429FC001439F900D112440
:1006C000AA2797FDA095BA2F8093500690935106C4
:1006D000A0935206B09353062091810521110FC0BB
:1006E000B095A095909581959F4FAF4FBF4F809348
:1006F000500690935106A0935206B0935306109261
:100700004F0610924E0680918605882399F02CE3BF
:10071000829FC001112490934F0680934E06209132
:100720008705211107C091958195910990934F06F6
:1007300080934E0608951F93CF93DF93CDB7DEB716
:10074000E2970FB6F894DEBF0FBECDBF8CE495E004
:100750000E947E3E882309F45BC08CE495E00E94F1
:100760003E3E182F482FBE016F5F7F4F8CE495E00F
:100770000E94823E163088F4109246061092470678
:1007800010924806109249061092420610924306B3
:1007900010924406109245063BC089818031C1F514
:1007A0004E8150E060E070E0762F652F542F442793
:1007B0008D81482B762F652F542F44278C81482B11
:1007C0008091500690915106A0915206B091530627
:1007D0008F579C4BA249B74C762F652F542F442737
:1007E0002B81422B840F951FA61FB71F80934606AF
:1007F00090934706A0934806B09349060E9411467D
:100800006093420670934306809344069093450696
:10081000E2960FB6F894DEBF0FBECDBFDF91CF9149
:100820001F91089590913803993030F0811106C0DE
:100830008AE0809338010895882341F088E080930E
:1008400032011092380383E08093380140913201E5
:1008500041504093320160917D0550913803252F1E
:1008600030E0862F90E001977AE0789FF001799F41
:10087000F00D1124E20FF31FEA56FE4F808190E045
:10088000042E02C0959587950A94E2F780FF03C075
:1008900084EE96E002C08CED96E09093DB068093A8
:1008A000DA06662369F0F901E457FE4F808190E093
:1008B000042E02C0959587950A94E2F7817001C0D5
:1008C00081E080933006411106C088E080933201B8
:1008D0005F5F509338030895882311F0611102C0BF
:1008E000299801C0299A289A289808950F931F9350
:1008F000CF93DF932AE030E090E0EC01C75CDE4F5D
:1009000021503109488150E04217530711F4299AC8
:1009100001C02998289A28982115310589F7209136
:100920009305222331F120915B06222321F02091AF
:100930003D062223F1F08C01005D1C4FF80120815F
:100940002A3041F428812A30A1F0FC01EA5CFD4FF5
:1009500041E007C028812A3061F4FC01EA5CFD4FC8
:1009600040E060818BE495E00E9437388881F8018F
:100970008083DF91CF911F910F9108950F931F9363
:10098000CF93DF93C82FD62F042F122F882309F47B
:1009900055C060914A0670914B0680914C0690912B
:1009A0004D060E94C9276AE070E00E94634F909153
:1009B0003401981731F091E0909333018093340122
:1009C00002C01092330180917D05882369F08091E7
:1009D0006406811109C081E090913301911101C039
:1009E00080E00E94120409C0E4EEF6E0F093DB061A
:1009F000E093DA0681E080933006E091DA06F09128
:100A0000DB06808180934001818180933F01828158
:100A100080933E01838180933D01848180933C01DA
:100A2000858180933B018091320680933A018091C9
:100A300031066AE00E94574F90933901DD2329F077
:100A40008AE08093400180933F01002329F08AE0EF
:100A500080933E0180933D01112349F09AE09093E9
:100A60003C0190933B0190933A019093390180911E
:100A70005F0581110DC080916005813049F480913E
:100A80004001811105C0CC2319F08AE08093400118
:100A900080913D06813069F480915B06882349F09E
:100AA0008AE08093390180933A0180933B018093DF
:100AB0003C012A9880E00E94760461E0809136062D
:100AC0000E946C0461E0809135060E946C0481E014
:100AD0000E94760461E080913006811101C060E0DF
:100AE000809138060E946C0461E08091300681118B
:100AF00001C060E0809137060E946C0487E00E948C
:100B0000760486E00E94760485E00E94760461E027
:100B100080913006811101C060E080913A060E9408
:100B20006C0461E080913006811101C060E0809129
:100B300039060E946C0484E00E94760483E00E94DF
:100B4000760482E00E9476042A9ADF91CF911F9169
:100B50000F910895CF93DF93FA01A081AF3F79F40D
:100B600020912E0630912F06280F391F26173707A0
:100B70005CF537FF2BC09B012150310927C0B0E045
:100B8000FA0120E030E0C191D0E08C179D07A9F474
:100B900080912E0690912F06820F931F861797073C
:100BA00029F097FF05C0CB01019702C080E090E0DB
:100BB000FA01E80FF91F208109C02F5F3F4F261768
:100BC00037070CF3CD01DCCF20E030E010922F0688
:100BD00010922E06822FDF91CF9108958F929F92CF
:100BE000AF92BF92EF92FF920F931F93CF93DF9339
:100BF0008C01EB0160914A0670914B0680914C0686
:100C000090914D060E94A3277C018091460381119B
:100C10000DC00E9411466093F2027093F30280931C
:100C2000F4029093F50281E080934603809164067C
:100C3000853009F4CDC10E9411468090F202909057
:100C4000F302A090F402B090F502681979098A09BC
:100C50009B09633371058105910558F00E94114687
:100C60006093F2027093F3028093F4029093F50282
:100C7000AFC180914006882321F0E0919105F0E01A
:100C800001C0F801EE0FFF1FEE51FE4F90808091E2
:100C90003406811106C080919205882311F0C0E0CE
:100CA000D0E00115110511F4C0E0D0E05701BB24DC
:100CB00026E0E29EF0011124E256FA4F80819181F4
:100CC0008130910559F4228133812130310549F475
:100CD000248135812130310521F477C1823091059D
:100CE00094F426E02A9DF0012B9DF00D1124E2568C
:100CF000FA4F22813381223031052CF42481358151
:100D00002230310514F0C9E0D0E020910B01309180
:100D10000C01C217D30739F4C630D10524F00F3FB8
:100D20001F4F09F455C1D0930C01C0930B01CA3079
:100D3000D10508F04DC1FE01EA5BFF4F0C94B84F9E
:100D400060E070E0ECC0C091F102EC2FF0E021E136
:100D5000C29FE0011124CB59D94FEE0FFF1FE65976
:100D6000FE4F60817181892D90E06817790714F436
:100D7000960E01C0912CCE010E94DA31CE010E9464
:100D8000CF31811125C1CE010E945131811116C090
:100D90008091F1028F5F833019F08093F10202C0DD
:100DA0001092F1028091F102E1E18E9FC0011124C5
:100DB00048EB5BE0692D8B59994F04C048EB5BE031
:100DC00060E0CE01DF91CF911F910F91FF90EF90E6
:100DD000BF90AF909F908F900C945431C5E6D6E0B1
:100DE0000AE611E0CE010E94DA31CE010E94CF3135
:100DF000811121C0CE010E945131811116C024E61B
:100E000030E040E050E061E070E080E090E00E947F
:100E1000C54BF801208131812617370714F4620F82
:100E200001C060E048EB5BE003C048EB5BE060E0E2
:100E3000CE010E94543161960E5F1F4FF6E0C83913
:100E4000DF0781F6C5C060E070E0809199060E94DE
:100E5000F44660E070E0809198060E94F44685E6D2
:100E600096E00E94DA3185E696E00E94CF3181114A
:100E7000AFC085E696E00E94513148EB5BE08111FE
:100E800002C0692D01C060E085E696E09BCF60E07E
:100E900070E088E00E94F44660E070E0809198067F
:100EA0000E94F44686E796E00E94DA3186E796E0F3
:100EB0000E94CF3181118CC086E796E00E945131AB
:100EC00048EB5BE0811102C0692D01C060E086E75C
:100ED00096E078CF60E070E088E00E94F44660E041
:100EE00070E0809199060E94F44687E896E00E949F
:100EF000DA3187E896E00E94CF31811169C087E836
:100F000096E00E94513148EB5BE0811102C0692DEF
:100F100001C060E087E896E055CF692D70E088E079
:100F20000E94F44660E070E007C060E070E088E096
:100F30000E94F446692D70E0809199060E94F44663
:100F400060E070E034C060E070E088E00E94F44649
:100F500060E070E0809199060E94F446692D70E08F
:100F600026C0FC01EE0FFF1FEE51FE4F6081718124
:100F700088E00E94F44686E08A9DE0018B9DD00DBA
:100F80001124C256DA4FEA81FB81EE0FFF1FEE51AA
:100F9000FE4F60817181809199060E94F446EC8138
:100FA000FD81EE0FFF1FEE51FE4F60817181809138
:100FB0009806DF91CF911F910F91FF90EF90BF9016
:100FC000AF909F908F900C94F446C0E0D0E089CE13
:100FD000DF91CF911F910F91FF90EF90BF90AF9055
:100FE0009F908F900895CF93DF93EC0160914A0614
:100FF00070914B0680914C0690914D060E94C92736
:1010000080FD03C01092F00203C081E08093F002E3
:10101000CC30D10508F0B4C0FE01E05BFF4F0C946A
:10102000B84F10923A061092390610923806109274
:10103000370688C081E080933A0680933906809312
:101040003806809337061092360698C08091F002D9
:101050008111ADC010923A061092380610923606F1
:1010600081E00BC08091F00281119BC081E08093F0
:101070003A06809338061092360680933906ACC043
:101080008091F002811199C081E080933A0610921C
:1010900038069EC08091F0028111DCCF81E0809300
:1010A0003A068093380610923606109239060DC023
:1010B0008091F002811187C081E080933A061092FE
:1010C000380610923606809339061092370656C0BD
:1010D0008091F002811122C010923A0610923806D7
:1010E00010923606C1E00BC08091F002811116C04B
:1010F000C1E0C0933A06C093380610923606C093FA
:1011000035060E948729882329F0C093390610925A
:10111000370604C010923906C09337068091F0025A
:10112000882371F110923906109237061092360614
:1011300042C010923A0681E08093390680933706C8
:1011400010923806109236060BC010923A06109292
:10115000390681E080933706109238068093360670
:10116000109235060DC081E080933A0680933906CF
:101170008093370680933806809336068093350631
:1011800080915B06882359F180913D06813039F5C5
:1011900010923706109238061092360610923506D5
:1011A0001EC010923A06109238061092360610921F
:1011B00039061092370681E0E1CF10923A0681E0BD
:1011C0008093380680CF10923A0681E080933806EB
:1011D000109236061092390680933706CFCFDF91F2
:1011E000CF91089580E090E00E94F307E9E3F1E0F9
:1011F0008AE0819391E0E134F907D9F720E040E0FB
:1012000060E080E00C94BE0440917F0550E04730E0
:101210005105C8F4FA01E45AFF4F0C94B84F80EC22
:1012200092E1089580E895E2089580E09BE40895B6
:1012300080E096E9089580E091EE089584EF91E0D2
:10124000089580E090E008956F927F928F929F9230
:10125000AF92BF92CF92DF92EF92FF920F931F93C4
:10126000CF93DF93D82FC62F642E722E0E94114683
:101270006B017C0180913E0381110DC00E941146DB
:101280006093EC027093ED028093EE029093EF0274
:1012900081E080933E03D33019F48091E80201C0CD
:1012A0008D2F8093E802C33019F48091E90201C0C8
:1012B0008C2F8093E90223E0621203C08091EA023E
:1012C00001C0862D8093EA0283E0781203C08091EA
:1012D000EB0201C0872D8093EB020E9411468090A3
:1012E000EC029090ED02A090EE02B090EF0268192F
:1012F00079098A099B09683E73408105910550F47C
:10130000D33041F4C33031F483E0681203C078165F
:1013100009F467C00E9411466093EC027093ED02DD
:101320008093EE029093EF0280914101811112C0EF
:1013300080910A01882309F454C0C0E040E06C2F7A
:101340008BE495E00E943738CF5FC430B9F7109234
:101350000A0147C081E080930A018091E4029091E4
:10136000E502A091E602B091E70246015701881A12
:10137000990AAA0ABB0AC8EED2E010E001E049913E
:10138000423030F4612F8BE495E00E9437381AC068
:1013900024EF821621E09206A104B10498F04230B5
:1013A00089F4C092E402D092E502E092E602F09263
:1013B000E7024091E302612F8BE495E00E94373809
:1013C0000093E2021F5F1430D1F68091E20288237D
:1013D00041F08091E30291E089278093E30210922B
:1013E000E202DF91CF911F910F91FF90EF90DF907C
:1013F000CF90BF90AF909F908F907F906F90089507
:101400004F925F926F927F928F929F92AF92BF9214
:10141000CF92DF92EF92FF920F931F93482E80910D
:101420005606813059F40E94E0024B015C016115BF
:1014300071058105910509F4BAC02AC00E941146C0
:1014400000914206109143062091440630914506D2
:10145000601B710B820B930B603D774081059105FA
:1014600008F095C08090460690904706A0904806E8
:10147000B090490681149104A104B10409F487C015
:10148000109246061092470610924806109249069E
:10149000109239030E94C7356B017C01C818D90826
:1014A000EA08FB08F7FE08C0F094E094D094C094DA
:1014B000C11CD11CE11CF11C512C612C712CC414D9
:1014C000D504E604F7040CF453C0B501A4018BEB7A
:1014D00097E00E94B236C501B4010E94A428809111
:1014E0005606813019F58CE197E00E946F2C9AE046
:1014F000899F5001112480911C07882379F00E9454
:101500001146009126071091270720912807309156
:101510002907601B710B820B930B03C06FEF7FEFEA
:10152000CB01C501860F971F0E94BC2980915606EA
:10153000823099F40E941146209142063091430670
:10154000CB01821B930B0E94BC2910924206109281
:10155000430610924406109245064C145D046E0436
:101560007F040CF051C023E043E061E081E03CC027
:1015700023E043E060E083E00E9424098091970526
:101580008150823008F040C0109241013DC010925D
:10159000420610924306109244061092450610929D
:1015A000460610924706109248061092490680910E
:1015B00039038F5F8F3F09F485E080933903809171
:1015C0003903853008F180919705813031F0823000
:1015D00039F480915B06811103C081E08093410161
:1015E00023E043E060E082E01F910F91FF90EF90D5
:1015F000DF90CF90BF90AF909F908F907F906F9033
:101600005F904F900C9424091F910F91FF90EF90E1
:10161000DF90CF90BF90AF909F908F907F906F9012
:101620005F904F900895CF92DF92EF92FF9283E107
:101630000E94CD46BC01882777FD8095982F0E9497
:10164000304E6B017C0120E030E04FE254E40E9418
:10165000914D87FD11C020E030E041E654E4C70120
:10166000B6010E94E04E18166CF4C12CD12CE1E6B4
:10167000EE2EE4E4FE2E06C0C12CD12CFFE2EF2EAC
:10168000F4E4FF2E20E030E04FE254E4C701B6015D
:101690000E942C4D20E030E048E453E40E94954D38
:1016A00020E030E048E452E40E94E44E9B01AC01AB
:1016B00060E070E088E492E40E942C4D20E030E08D
:1016C000A9010E942D4D0E94FD4DCB01FF90EF908E
:1016D000DF90CF900895CF92DF92EF92FF92853006
:1016E00050F4833078F4813078F1FF90EF90DF9000
:1016F000CF900C940C02853039F58AE295E00E9477
:10170000BD3B22C060E08AE295E00E94523C6B0142
:101710007C0180918D056AE00E94574F682F70E030
:1017200080E090E00E94304E9B01AC01C701B60101
:101730000E942C4D20E030E048EC52E40E94E44E40
:101740000E94FD4DCB0102C080E090E0FF90EF9041
:10175000DF90CF9008950F931F93CF93DF938091E5
:101760004E0381110CC080916105811102C083E09C
:1017700001C081E08093130381E080934E03809148
:101780002D01882351F00E94114660930F0370933E
:1017900010038093110390931203809113038130FF
:1017A00009F0C2C190912D01992309F459C11092F9
:1017B0002D01809330060E94F208809161058230ED
:1017C00009F445C0833009F4C7C0813009F048C12D
:1017D00060914A0670914B0680914C0690914D069F
:1017E0000E94DB27CAE0D0E0BE010E94634F6093F5
:1017F000250160914A0670914B0680914C069091AC
:101800004D060E94DB27BE010E94634F8093260194
:1018100060914A0670914B0680914C0690914D065E
:101820000E94CF27BE010E94634F60932701609101
:101830004A0670914B0680914C0690914D060E948D
:10184000CF27BE010E94634F809328013EC0609164
:101850004A0670914B0680914C0690914D060E946D
:10186000DB27CAE0D0E0BE010E94634F60932701EE
:1018700060914A0670914B0680914C0690914D06FE
:101880000E94DB27BE010E94634F80932801609174
:101890004A0670914B0680914C0690914D060E942D
:1018A000CF27BE010E94634F6093250160914A06D5
:1018B00070914B0680914C0690914D060E94CF2767
:1018C000BE010E94634F8093260160914A06709189
:1018D0004B0680914C0690914D060E94E12768EEE0
:1018E00073E00E94634F6093290160914A067091F2
:1018F0004B0680914C0690914D060E94E12764E6CC
:1019000070E00E94634FCB01BE010E94634F809341
:101910002A0160914A0670914B0680914C06909185
:101920004D060E94E127805D9740BE010E94634FF3
:1019300060932B0160914A0670914B0680914C0692
:1019400090914D060E94E127805D9740BE010E9464
:10195000634F80932C0184C060914A0670914B06BE
:1019600080914C0690914D060E94DB27CAE0D0E0A2
:10197000BE010E94634F6093270160914A067091F7
:101980004B0680914C0690914D060E94DB27BE01CC
:101990000E94634F8093280160914A0670914B0624
:1019A00080914C0690914D060E94CF27BE010E9467
:1019B000634F6093290160914A0670914B068091B4
:1019C0004C0690914D060E94CF27BE010E94634FA6
:1019D00080932A0160914A0670914B0680914C06D3
:1019E00090914D060E94E12768EE73E00E94634FDC
:1019F00060932B0160914A0670914B0680914C06D2
:101A000090914D060E94E12764E670E00E94634FCA
:101A1000CB01BE010E94634F80932C0160914A0666
:101A200070914B0680914C0690914D060E94E127E3
:101A3000805D9740BE010E94634F609325016091D5
:101A40004A0670914B0680914C0690914D060E947B
:101A5000E127805D9740BE010E94634F809326017D
:101A60000E94114600910F03109110032091110361
:101A7000309112030C591F4F2F4F3F4F0617170776
:101A80002807390758F580E0E82FF0E0E25EFE4FC6
:101A9000918190838F5F8E30B8F380930E03809195
:101AA0000D038F5F80930D030E94114660930F0317
:101AB00070931003809311039093120380910D0390
:101AC000873061F410920D0381E080932D0182E054
:101AD0008093130389E090E00E94F30780911E0138
:101AE0008093400180911F0180933F0180912001EC
:101AF00080933E018091210180933D0180912201DC
:101B000080933C018091230180933B0180912401CB
:101B100080933A01809125018093390120E040E0D3
:101B200060E080E00E94BE04809113038230E9F5FA
:101B300080912D01882351F080918C05882321F01C
:101B40008AE295E00E94BD3B10922D010E94114651
:101B500000910F0310911003209111033091120393
:101B60000053184F2F4F3F4F061717072807390705
:101B7000E0F481E080932D0190910C038091410667
:101B8000911102C0823011F0811102C085E001C0C4
:101B900083E0809313030E94114660930F037093B8
:101BA00010038093110390931203809113038330E9
:101BB00009F0A4C080912D018823D1F180918C057A
:101BC0000E946B0B9C0190930B0380930A03845635
:101BD00091098C3A964220F085E08093130328C047
:101BE00010922D014AE04093270140932601C9013C
:101BF00068EE73E00E94634F60932801E4E6F0E032
:101C0000BF010E94634F60932901C901BF010E9477
:101C1000634FEAE0F0E0BF010E94634F60932A0146
:101C2000C901BF010E94634F80932B0140932C0197
:101C30000E94114600910F0310911003209111038F
:101C4000309112030C591F4F2F4F3F4F06171707A4
:101C50002807390768F580E0E82FF0E0E25EFE4FE4
:101C6000918190838F5F8E30B8F380930E038091C3
:101C70000D038F5F80930D030E94114660930F0345
:101C800070931003809311039093120380910D03BE
:101C9000883071F48AE090E00E94F30710920D03FF
:101CA00081E080932D0110920C0384E08093130354
:101CB00080911E018093400180911F0180933F011C
:101CC0008091200180933E018091210180933D010C
:101CD0008091220180933C018091230180933B01FC
:101CE0008091240180933A018091250180933901EC
:101CF00020E040E060E080E00E94BE048091130399
:101D0000843049F510922D010E94114600910F0375
:101D10001091100320911103309112030053184FBA
:101D20002F4F3F4F0617170728073907A0F481E008
:101D300080932D0185E08093130380916205809349
:101D400059060E94114660930F037093100380930D
:101D500011039093120380911303853009F023C17E
:101D600080912D01882309F49BC080E090E00E94BF
:101D7000F30720915F0560914A0670914B068091B0
:101D80004C0690914D06211103C00E94B42702C059
:101D90000E94A3278093090310922D0110920D0336
:101DA0001AE010931E0120910A0330910B03CAE040
:101DB000D0E0C901BE010E94634F80931F01E4E699
:101DC000F0E0C901BF010E94634FBE010E94634F52
:101DD00060932001C90168EE73E00E94634F262FD3
:101DE000BF010E94634F6093210120932201109351
:101DF00023011093240160914A0670914B06809153
:101E00004C0690914D060E94C927BE010E94634F67
:101E10008093250160914A0670914B0680914C0693
:101E200090914D060E94C927BE010E94634F6093A6
:101E3000260160914A0670914B0680914C06909164
:101E40004D060E94C327BE010E94634F8093270165
:101E500060914A0670914B0680914C0690914D0618
:101E60000E94C327BE010E94634F60932801209106
:101E70000903822F612F0E94574F9093290180916F
:101E80005F05811107C080916005813019F41093BE
:101E90002A0106C0822F6AE00E94574F80932A01D0
:101EA0000E94114600910F0310911003209111031D
:101EB000309112030C591F4F2F4F3F4F0617170732
:101EC0002807390708F045C080E0E82FF0E0E25E1F
:101ED000FE4F918190838F5F8E30B8F380930E0315
:101EE00080910D038F5F80930D030E9411466093D4
:101EF0000F0370931003809311039093120380914A
:101F00000D03863031F58BE195E00E9443378BE17C
:101F100095E00E940D378DEF94E00E9443378DEFDE
:101F200094E00E940D3780E09AE0E82FF0E0E25E56
:101F3000FE4F90838F5F8E30C0F380930E0381E05D
:101F400080932D018093130310920D031092640669
:101F50002AC08091250180934001809124018093C3
:101F60003F018091230180933E0180912201809363
:101F70003D018091210180933C018091200180935B
:101F80003B0180911F0180933A0180911E01809353
:101F9000390120E040E060E080E0DF91CF911F91C7
:101FA0000F910C94BE04DF91CF911F910F91089572
:101FB00061E08DE10E94CD4762E070E080E090E05A
:101FC0000E94404660E08DE10C94CD470F931F9333
:101FD000CF9380915B06882339F080915A06811156
:101FE00003C0C0913D0602C0C0913C06809192059D
:101FF000882379F08091340681110BC080913306DB
:10200000811107C060E08FE1CF911F910F910C9477
:10201000CD4780918F058823B9F00E94130B209142
:102020008F0530E0281739077CF4C091900581E0D6
:10203000809340060E9411466093DE027093DF0297
:102040008093E0029093E1020E9411460091DE022B
:102050001091DF022091E0023091E102601B710BD0
:10206000820B930B613177428105910510F010923C
:10207000400680914006882331F080919005C81772
:1020800011F0C1113EC08FEF8C0F8830B8F4EC2FE7
:10209000F0E0EE0FFF1FE654FE4F80919605608141
:1020A0007181680F711D6F3F710519F014F06FEFAA
:1020B00070E087E00E94F44661E00AC0C930B9F3DD
:1020C000C11109C060E070E087E00E94F44660E062
:1020D0008FE10E94CD4780915B06811103C0E091A2
:1020E000940502C0E0919505F0E0EE0FFF1FE2536A
:1020F000FE4F6081718189E0CF911F910F910C9407
:10210000F446CF911F910F91089510925B061092A3
:102110003B060E94E60F80916205809359068091EC
:10212000640580935706809165058093580623E0E7
:1021300040E063E083E00C942409AF92BF92CF9219
:10214000DF92EF92FF920F931F93CF93DF93CDB760
:10215000DEB727970FB6F894DEBF0FBECDBF0E9443
:10216000D52840914A0650914B0660914C067091DB
:102170004D068AE996E00E949030882311F021E014
:1021800001C020E043E063E083E00E942409609105
:102190004A0670914B0680914C0690914D060E9424
:1021A000D527019709F4AEC060914A0670914B069D
:1021B00080914C0690914D060E94D527079709F40F
:1021C000A1C0D12C60914A0670914B0680914C06BB
:1021D00090914D06AE014F5F5F4F0E94A62607E724
:1021E00015E0E12CF12CCC24C3946CE16E0DF801C8
:1021F0003397408150E03196808190E03196708134
:102200002B814817590709F461C030E084179507FE
:1022100034F448962417350734F4285E3F4F2417CA
:1022200035070CF44AC0281739070CF046C0872F31
:1022300090E0009751F08130910519F4D1103DC024
:1022400004C00297D1F5DD20C1F1C0925B06609316
:102250003B06F801808180933D060E94E60FF7015E
:10226000E25AFA4F828D80935906838D80935706E8
:10227000848D8093580680919705823011F41092D6
:10228000410123E041E063E083E00E942409F8017A
:10229000808181111BC086E3A82E82E0B82EF50153
:1022A00061915F0141E08BE495E00E943738FEE3E5
:1022B000AF16F2E0BF0699F709C080913B0686137E
:1022C00005C080915B0681110E94851087E0E81AA5
:1022D000F10807501109EBEEEE16EFEFFE0609F0DC
:1022E00084CF27960FB6F894DEBF0FBECDBFDF9127
:1022F000CF911F910F91FF90EF90DF90CF90BF9003
:10230000AF900895DD24D3945DCFDF92EF92FF92DA
:102310000F931F93CF93DF9300D000D0CDB7DEB7DC
:1023200019821A821B8280912E01882339F10E9422
:10233000F20860E070E088E00E94F44660E070E03F
:10234000809199060E94F44660E070E080919806C2
:102350000E94F4460E9485101092140310925706B2
:102360001092580610922E010E941146609360064A
:102370007093610680936206909363068BE195E00B
:102380000E9483378823C9F046E950E060E070E09E
:102390008BE195E00E94F3360E941146609360063F
:1023A0007093610680936206909363060E94D80F33
:1023B000809114038F5F809314038CE095E00E945A
:1023C0008337882329F146E950E060E070E08CE033
:1023D00095E00E94F3360E94114660936006709368
:1023E000610680936206909363060E94D80FE09185
:1023F000140326E0E29FF0011124E256FA4F808197
:1024000091810196918380830A9714F01182108242
:102410008DEF94E00E948337882329F146E950E04C
:1024200060E070E08DEF94E00E94F3360E94114668
:1024300060936006709361068093620690936306D2
:102440000E94D80FE091140386E0E89FF001112468
:10245000E256FA4F828193810196938382830A9791
:1024600014F0138212828EEE94E00E948337882348
:1024700029F146E950E060E070E08EEE94E00E94C1
:10248000F3360E9411466093600670936106809354
:102490006206909363060E94D80FE091140326E031
:1024A000E29FF0011124E256FA4F84819581019652
:1024B000958384830A9714F0158214828091140303
:1024C0008831F0F05EE9E52E55E0F52E24E6D22EB7
:1024D00000E010E0F701E00FF11F60818D2D90E02A
:1024E0002C830E94FB52D3940E5F1F4F2C81063029
:1024F000110581F72D5F86E0E80EF11C2C3A39F7C3
:1025000080911403883108F078C00E941146009130
:102510006006109161062091620630916306601B8F
:10252000710B820B930B613C744D8140910508F057
:1025300064C020911403FE01319686E0289F90012B
:10254000112422563A4F80E090E0D901A80FB91F1C
:102550000D90BC91A02DA130B10511F4108206C0E0
:10256000AA0FBB1FAE51BE4F4C91408302963196CD
:102570008630910551F7698170E088E00E94F44649
:102580006A8170E0809199060E94F4466B8170E048
:10259000809198060E94F446E09114032AE08E2F61
:1025A000622F0E94574F8093400190933F012093E8
:1025B0003E0120933D0120933C0126E0E29FF00183
:1025C0001124E256FA4F808180933B0182818093EF
:1025D0003A0184818093390120E041E060E080E0AD
:1025E0000F900F900F900F90DF91CF911F910F914F
:1025F000FF90EF90DF900C94BE040E94F2080E94BE
:1026000085100E949D1081E080932E011092640637
:102610000F900F900F900F90DF91CF911F910F911E
:10262000FF90EF90DF90089510925A0610923306B3
:102630000C949D10CF92DF92EF92FF920F931F9315
:10264000CF93DF9380913101882309F450C00E9419
:10265000D5286B017C010E94A32790932F038093C0
:102660002E03C701B6010E94C32790932D038093C8
:102670002C03C701B6010E94C92790932B038093B6
:102680002A03C701B6010E94DB2790932903809398
:102690002803C701B6010E94CF2790932703809398
:1026A0002603C701B6010E94E127805D9740909301
:1026B0002503809324030E94D80F0E94F2081092F1
:1026C000340610925B0610925A068091630580933F
:1026D0003C060E94E60F0E941146609360067093CC
:1026E00061068093620690936306109231018BE13C
:1026F00095E00E940D37892BB1F48BE195E00E94A3
:10270000F936693B7B408105910568F00E94D80F3E
:1027100084E08093640681E080933101109223036A
:102720001092220310C28BE195E00E948337882328
:10273000A9F08091220390912303019690932303A3
:10274000809322030E941146609360067093610695
:1027500080936206909363060E94D80F8CE095E008
:102760000E9483378823F9F08091220390912303FC
:10277000019790932303809322030E941146609354
:102780006006709361068093620690936306809161
:1027900022039091230397FF04C010922303109209
:1027A00022030E94D80F0E941146C0901E03D090B1
:1027B0001F03E0902003F09021036C197D098E091E
:1027C0009F09683C710581059105A0F10E941146A1
:1027D00060931E0370931F03809320039093210343
:1027E000809122039091230363E070E00E94634F85
:1027F0008230910511F410921C03FC01E55EFC4F40
:102800002081222311F0108202C021E02083009752
:1028100019F410921C0305C08130910529F410921F
:102820001B0310921D0306C0029721F410921B0394
:1028300010921C038DEF94E00E9483378823D1F01F
:1028400046E950E060E070E08DEF94E00E94F336DE
:102850000E94114660936006709361068093620641
:10286000909363060E94D80F81E090E090931A0342
:10287000809319038EEE94E00E9483378823D1F071
:1028800046E950E060E070E08EEE94E00E94F3369E
:102890000E94114660936006709361068093620601
:1028A000909363060E94D80F8FEF9FEF90931A03C7
:1028B00080931903E0912203F091230380912E036A
:1028C00090912F0360912C0370912D0340912A0366
:1028D00050912B0300912803109129032091260386
:1028E00030912703C0912403D0912503A0911903AF
:1028F000B0911A03109709F46BC0E230F10581F131
:1029000034F4309771F0E130F105D9F061C0E43072
:10291000F10509F442C09CF1E530F10509F44BC022
:1029200057C08A0F9B1F8831910541F08F3FAFEF51
:102930009A0709F04DC087E190E04AC080E090E03E
:1029400047C06A0F7B1F6C33710519F460E070E0BB
:102950003FC06F3FAFEF7A07D9F56BE370E038C047
:102960004A0F5B1F4C33510519F440E050E030C072
:102970004F3FAFEF5A0761F54BE350E029C00A0F14
:102980001B1F0D30110519F401E010E021C00115E5
:102990001105F1F40CE010E01BC02A0F3B1F2032A0
:1029A000310519F421E030E013C02115310581F41F
:1029B0002FE130E00DC0CA0FDB1FC436D10519F47A
:1029C000C0E1D0E005C0CF30D10514F4C3E6D0E0BB
:1029D00090932F0380932E0370932D0360932C0309
:1029E00050932B0340932A03109329030093280349
:1029F0003093270320932603D0932503C093240309
:102A000010921A03109219033697B1F47E01E0E395
:102A1000EE1AE8EFFE0A0E9498290E94D528AB0121
:102A2000BC018BEB97E00E94B2368091560688235A
:102A300019F080E00E94000A809122039091230304
:102A4000069799F00E941146C0906006D0906106EA
:102A5000E0906206F09063066C197D098E099F096B
:102A6000613C744D8140910590F0109223031092C7
:102A700022030E9485100E949D100E94F20881E0AE
:102A80008093310110923306109264065CC08091ED
:102A90002203909123030397ECF480912E039091ED
:102AA0002F032AE030E0B9010E94634F6093400198
:102AB00080933F0180912C0390912D03B9010E94D6
:102AC000634F60933E0180933D0180912A03909172
:102AD0002B031CC080912803909129032AE030E049
:102AE000B9010E94634F6093400180933F01809140
:102AF000260390912703B9010E94634F60933E0122
:102B000080933D018091240390912503B9010E9497
:102B1000634F60933C0180933B018AE080933A01CC
:102B20008093390120911D0340911C0360911B0388
:102B300080E0DF91CF911F910F91FF90EF90DF9098
:102B4000CF900C94BE04DF91CF911F910F91FF9015
:102B5000EF90DF90CF9008958F929F92AF92BF92A7
:102B6000CF92DF92EF92FF920F931F93CF93DF9359
:102B700080915A0681116CC180917B05882309F4EC
:102B800067C190911D01992309F490C0982F9B7FF4
:102B9000923021F0843011F0883029F489E080935C
:102BA0003C060E94E60F80917B0590E0FC01319786
:102BB000E830F10508F0FAC1ED59FF4F60914A067F
:102BC00070914B0680914C0690914D060C94B84F35
:102BD0000E94C3276AE070E00E94634F80913F0625
:102BE00090E06817790749F410C00E94A32720914C
:102BF0003E0630E08217930741F081E0809308039E
:102C000004C00E94A327892BC1F360914A067091EA
:102C10004B0680914C0690914D060E94C3276AE0B6
:102C200070E00E94634F60933F0660914A06709186
:102C30004B0680914C0690914D060E94A3278093ED
:102C40003E0681E0809330068BE090E00E94F3071F
:102C50001092070310921D01E0917C0584E0E89F2B
:102C6000F0011124E655FE4F80819181A281B3814C
:102C70008093030390930403A0930503B09306038A
:102C80000E941146C0900303D0900403E090050316
:102C9000F09006036C0D7D1D8E1D9F1D6093FF023D
:102CA0007093000380930103909302030E941146E6
:102CB0008090FF0290900003A0900103B090020367
:102CC00086169706A806B90620F0809108038111A0
:102CD000F0C080911C01882309F464C0EDE0F1E0AC
:102CE0008AE0819391E0E431F907D9F760914A06CF
:102CF00070914B0680914C0690914D060E94A3273F
:102D0000CAE0D0E0BE010E94634F6093140160915D
:102D10004A0670914B0680914C0690914D060E9498
:102D2000A327BE010E94634F8093150160914A065C
:102D300070914B0680914C0690914D060E94C327DE
:102D4000BE010E94634F6093160160914A06709124
:102D50004B0680914C0690914D060E94C327BE0100
:102D60000E94634F8093170160914A0670914B0651
:102D700080914C0690914D060E94C927BE010E9489
:102D8000634F6093180160914A0670914B068091E1
:102D90004C0690914D060E94C927BE010E94634FC8
:102DA0008093190110921C010E9411460091F702B4
:102DB0001091F8022091F9023091FA020C591F4F3C
:102DC0002F4F3F4F061717072807390708F0EEC0A7
:102DD000EEE0F1E0ADE0B1E081918D9381E0EB3187
:102DE000F807D1F78091F6028F5F8093F6020E9478
:102DF00011466093F7027093F8028093F902909362
:102E0000FA028091F602873031F51092F6028BE1DA
:102E100095E00E9443378BE195E00E940D378DEFDE
:102E200094E00E9443378DEF94E00E940D3781E0DB
:102E300080931D0180931C0110920803809163050B
:102E400080933C060E94E60F89E090E00E94F30721
:102E500010926406ABC080910D0180933F01809178
:102E60000E0180933E0180910F0180933D0180917E
:102E7000100180933C018091110180933B0180916E
:102E8000120180933A01809113018093390120E06F
:102E900040E060E080E0DF91CF911F910F91FF90C3
:102EA000EF90DF90CF90BF90AF909F908F900C9459
:102EB000BE040E9411466B017C010E9411460091E4
:102EC000FB021091FC022091FD023091FE02601B7A
:102ED000710B820B930B653671058105910508F422
:102EE00065C08C189D08AE08BF08B7FE03C0812CD2
:102EF000912C5401C9E3D1E064E6C62ED12CE12C1B
:102F0000F12C1AE08091030390910403A091050332
:102F1000B0910603AC01BD0176956795579547952D
:102F2000481559056A057B0560F4B701A601480DEF
:102F3000591D6A1D7B1D84179507A607B70730F436
:102F400009C0C814D904EA04FB0424F480910703DF
:102F5000888305C0188380E090E00E94F3072196E3
:102F600094E6C90ED11CE11CF11C84E8C81683E06C
:102F7000D806E104F10431F620E040E060E080E0B2
:102F80000E94BE04809107038F5F8A3019F08093FE
:102F9000070302C0109207030E9411466093FB02D0
:102FA0007093FC028093FD029093FE02DF91CF911B
:102FB0001F910F91FF90EF90DF90CF90BF90AF9057
:102FC0009F908F90089580919205882359F1809168
:102FD0003306811127C082E10E94CD46853F914092
:102FE0000CF180913406882331F060E070E086E9CE
:102FF00093E00C94463481E0809334060E94E60FFF
:10300000E091920584E0E89FF0011124E059FE4F21
:10301000408151816281738121E032E086E993E051
:103020000C942D3308951F93CF93DF93CDB7DEB764
:10303000A4970FB6F894DEBF0FBECDBF80915A069D
:10304000882329F080919C05882309F41EC165E539
:1030500072E0CE014F960E944F4C80919B058230CA
:10306000B1F070F4813009F009C160914A067091A5
:103070004B0680914C0690914D060E94C92715C0C1
:10308000833009F462C0843009F494C0F7C06091C1
:103090004A0670914B0680914C0690914D060E9415
:1030A000C32765E070E00E94634F11E0892B09F0AF
:1030B00010E04AE06091E706CE0101960E949D4C27
:1030C0004AE06091E606CE0107960E949D4C4AE0D8
:1030D0006091E506CE0143960E949D4C4AE06091C6
:1030E000E406CE0149960E949D4CBE01675E7F4F6B
:1030F000CE010D960E947C4CBE016D5E7F4FCE01CD
:103100000D960E94F64CBE01695F7F4F0E94F64CFF
:10311000BE016F5F7F4F0E94F64CBC01CE014F96FF
:103120000E94654CCE010D960E94E14BCE0149965E
:103130000E94E14BCE0143960E94E14BCE010796DF
:103140000E94E14BCE0101967BC060914A067091CE
:103150004B0680914C0690914D060E94C327892B07
:1031600009F472C060914A0670914B0680914C063A
:1031700090914D060E94C3270F9709F465C0609196
:103180004A0670914B0680914C0690914D060E9424
:10319000C3274E9709F458C060914A0670914B06B8
:1031A00080914C0690914D060E94C3278D9709F09F
:1031B00065C04AC060914A0670914B0680914C06EA
:1031C00090914D060E94A327892B09F45CC0609161
:1031D0004A0670914B0680914C0690914D060E94D4
:1031E000C327892B09F44FC010E04AE06091E5063F
:1031F000CE0107960E949D4C4AE06091E406CE0104
:103200000D960E949D4CBE01635F7F4FCE010196DB
:103210000E947C4CBE01695F7F4FCE0101960E94E7
:10322000F64CBC01CE014F960E94654CCE01019632
:103230000E94E14BCE010D960E94E14BCE01079614
:103240000E94E14B1123D1F0BE01615E7F4FCE01A0
:1032500001960E947C4CBE016F5F7F4F80915E03A0
:1032600090915F030E94A541CE0101960E94E14B1F
:1032700080915E0390915F030E94BE41CE014F9604
:103280000E94E14B02C011E0B0CFA4960FB6F894B3
:10329000DEBF0FBECDBFDF91CF911F910895833068
:1032A00079F030F4813051F0823069F48FE00BC056
:1032B000843041F0853039F48EE105C08AE003C0E6
:1032C00084E101C089E1682F70E080E090E00E9415
:1032D0002E4EAB01BC0180915E0390915F030C9474
:1032E0003941082F0E94F208C0E0D0E010E0C4305D
:1032F000D1057CF4A8010C2E02C0559547950A947F
:10330000E2F741706C2F8BE495E00E9437382196EC
:10331000EECF64EF71E080E090E00E944046C0E0B4
:10332000D0E0A8010C2E02C0559547950A94E2F70B
:103330004170552781E048276C2F8BE495E00E946F
:1033400037382196C430D10561F764EF71E080E031
:1033500090E00E944046C0E0D0E0C9CFCF92DF921B
:10336000EF92FF920F931F93CF93DF93CDB7DEB70A
:103370006E970FB6F894DEBF0FBECDBF40E157E2A7
:1033800060E070E086EB97E00E94EF342FEF3FEFB4
:10339000A90168EE71E086EB97E00E94FF3420E01F
:1033A00040E060E080E00E94240926E040E052EC2A
:1033B00061E070E086E898E00E94204961E084E0E6
:1033C0000E94944761E085E00E94944761E086E0B6
:1033D0000E94944761E087E00E94944761E08FE19A
:1033E0000E94944761E08DE10E94944761E088E08B
:1033F0000E94944761E0809199060E94944761E0A1
:10340000809198060E94944761E089E00E94944769
:1034100060E08FE10E94CD4760E088E00E94CD47E8
:1034200060E0809199060E94CD4760E08091980607
:103430000E94CD4760E089E00E94CD4762E08FE0C6
:103440000E94944762E08EE00E94944762E081E12E
:103450000E94944762E080E10E9494478BE495E0EB
:103460000E94C83710E041E0612F8BE495E00E9494
:103470002C381F5F1031B9F706E312E0D8016D91C7
:103480008D0140E08BE495E00E943738B2E00E33C6
:103490001B07A1F764EF71E080E090E00E944046D6
:1034A0008DEF94E00E9443378EEE94E00E94433704
:1034B0008BE195E00E9443378CE095E00E94433712
:1034C0008EEE94E00E940D37892B39F48DEF94E055
:1034D0000E940D37892B09F499C280E090E00E9488
:1034E000F3528F3F09F10FE5E02E05E0F02E01E0E9
:1034F00010E0C8010E94F352F70180838F3F31F43E
:10350000F801EA50FE4F8081D7018C930F5F1F4F67
:10351000BFEFEB1AFB0A0034110559F71EE9E12E43
:1035200015E0F12E24E63FC0B7EFEB2EB1E0FB2E05
:1035300001E010E0F70161917F01C8010E94FB5298
:103540000F5F1F4F00341105A9F760E080E090E0A5
:103550000E94FB5214E603E0010F60E0812F90E02F
:103560000E94FB521F5F1013F8CF1C3AA1F7D6CF71
:103570008D2D90E02E8F0E94F35290E0F701E00F26
:10358000F11F2E8D8A30910594F491838083D3941A
:103590000E5F1F4F0630110559F72D5FF6E0EF0E55
:1035A000F11C2C3A39F0D22E00E010E0E1CF11826C
:1035B0001082EDCF8BE080935E0580919A0581119A
:1035C00005C08EE1809399068AE004C08AE080936A
:1035D00099068EE18093980668E09E012F5F3F4F29
:1035E0006901C9010E941B3181E1F601A5E6B6E03F
:1035F00001900D928A95E1F760919906C6010E94AB
:103600001B3181E1F601A6E7B6E001900D928A95A3
:10361000E1F760919806C6010E941B3181E1F60135
:10362000A7E8B6E001900D928A95E1F760E070E0BE
:1036300080E090E00E94EE0580916205809359063B
:103640008091630580933C068091640580935706C2
:10365000809165058093580680917E05882349F006
:1036600034E0839FC0011124AA2797FDA095BA2FAB
:1036700004C081E090E0A0E0B0E080935C0690930D
:103680005D06A0935E06B0935F0610917F05812FC3
:1036900090E00E940409AC01909355068093540673
:1036A000009719F4109256064FC0163068F481E066
:1036B00080935606662757FD6095762F26E083E2B5
:1036C00099E00E94204940C082E0809356068CE435
:1036D00095E00E94DF3F609142018CE495E00E94FA
:1036E0001A3E45E063E08CE495E00E946C408CE477
:1036F00095E00E94613F62E070E08CE495E00E94FA
:103700009D3F60E08CE495E00E947C3F62E070E0C9
:103710008CE495E00E94504062E08CE495E00E94C9
:10372000843FF3E2EF2EA5E4FA2E07E712E121E051
:1037300030E040E050E060E08CE495E00E948E3E96
:103740008CE495E00E941B3F80918C05982F9D7F13
:10375000913011F490934106823011F0843019F4C5
:1037600082E08093410680919D050E944F190E943E
:103770004B032CE0FE017296DF01322F1D923A9529
:10378000E9F784E493E5A4E5B0E08A8B9B8BAC8BEE
:10379000BD8B1F8A1E8A80918305888F8091840546
:1037A000898F809182058A8F809185058B8F80918A
:1037B0004E0690914F069D8F8C8FD601E22F1D9261
:1037C000EA95E9F783E594E5A4E4B0E089839A8378
:1037D000AB83BC831E821D82809189058F8380917B
:1037E0008A05888780918805898780918B058A87DB
:1037F0008DB79EB70C970FB6F8949EBF0FBE8DBFC6
:10380000ADB7BEB71196F60101900D922A95E1F77A
:10381000CA88DB88EC88FD880E891F89288D398D40
:103820004A8D5B8D6C8D7D8D8AE996E00E94DF303C
:103830008CE095E00E940D370FB6F894DEBF0FBE06
:10384000CDBF892B09F046C00E9411466B017C0157
:1038500081E0809330068BE090E00E94F30761E006
:1038600087E00E94CD4761E08FE10E94CD4710E0E4
:10387000B0EECB0EB3E9DB1EB4E0EB1EF11C0E94F0
:1038800011466C157D058E059F05C0F4E9E3F1E056
:10389000119321E0E134F207D9F720E040E060E045
:1038A00080E00E94BE0462E370E080E090E00E944D
:1038B00040461F5F1A3019F710E0E1CF80E090E03A
:1038C0000E94F30760E087E00E94CD4760E08FE14F
:1038D0000E94CD478BE195E00E940D37892BB1F511
:1038E00061E087E00E94CD4761E08FE10E94CD4713
:1038F0000E94F20881E0809330068BE090E00E9405
:10390000F30710E0E9E3F1E0119331E0E134F3076C
:10391000D9F76CED75E080E090E00E94404620E031
:1039200040E060E080E00E94BE041F5F1B3051F762
:103930000E94F20880E090E00E94F30760E087E0D8
:103940000E94CD4760E08FE10E94CD4710E040E04B
:10395000612F8BE495E00E9437381F5F1430B9F770
:1039600010E041E0612F8BE495E00E94373864EF6E
:1039700071E080E090E00E9440461F5F143089F7BC
:1039800064E873E080E090E00E94DE2987EC95E334
:103990000E94C8290E94C129029719F08FE00E9455
:1039A00071190E94C7350E94A42880915606882369
:1039B00031F023E043E063E082E00E94240986E3E3
:1039C00090E00E9474428C0120E030E040E451E439
:1039D0006DE170E00E94764210935F0300935E03F6
:1039E000C8010E9434410E94E60F0E94F2086E96C0
:1039F0000FB6F894DEBF0FBECDBFDF91CF911F9100
:103A00000F91FF90EF90DF90CF9008956FEF80E0DF
:103A100090E00E94FB5261CDCF92DF92EF92FF9235
:103A20000F931F93CF93DF93CDB7DEB76D970FB68C
:103A3000F894DEBF0FBECDBF80913001882361F0C6
:103A40000E9411466093600670936106809362063F
:103A50009093630610923001809118038033C9F56A
:103A600060914A0670914B0680914C0690914D06EC
:103A70000E94C9276AE070E00E94634F182F80916E
:103A80002F01811721F1833611F10E94130B382F7A
:103A900080931703809118032AE0622F0E94574FEA
:103AA00080933F0190933E0120933D0120933C0180
:103AB000832F0E94574F80933B0190933A012093AC
:103AC000390120E041E060E080E00E94BE041093F4
:103AD0002F018BE195E00E940D37892B51F48BE18A
:103AE00095E00E94F936653971418105910508F02C
:103AF000E4C58BE195E00E9483378823C9F046E94D
:103B000050E060E070E08BE195E00E94F3360E94A7
:103B100011466093600670936106809362069093ED
:103B200063060E94D80F809118038F5F809318035B
:103B30008CE095E00E9483378823C9F046E950E085
:103B400060E070E08CE095E00E94F3360E94114640
:103B5000609360067093610680936206909363069B
:103B60000E94D80F80911803815080931803809190
:103B7000180390911603891749F0E82FF0E0E25AF4
:103B8000FA4F908190931703809316038DEF94E082
:103B90000E9483378823C1F046E950E060E070E07E
:103BA0008DEF94E00E94F3360E9411466093600608
:103BB00070936106809362069093630681E090E0C3
:103BC00090932F0680932E068EEE94E00E9483370A
:103BD0008823C1F046E950E060E070E08EEE94E0AA
:103BE0000E94F3360E94114660936006709361064E
:103BF00080936206909363068FEF9FEF90932F065A
:103C000080932E0680912E0690912F06892B09F421
:103C100013C580911803803319F081110E94D80FC9
:103C20008091180390E08034910508F005C5FC01EF
:103C3000E559FF4F0C94B84F8FEF898380915E0553
:103C4000AE014F5F5F4F60E070E090E00E94AA0518
:103C5000F3C4198281E08A8380915F05AE014F5FD2
:103C60005F4F62E070E090E00E94AA0580935F05DC
:103C700080931703E1C4198281E08A8380916005F3
:103C8000AE014F5F5F4F62E070E090E00E94AA05D6
:103C90008093170380936005CFC48FEF8983809151
:103CA0006105AE014F5F5F4F64E070E090E00E94FD
:103CB000AA058093170380936105BEC48FEF8983A3
:103CC00080916205AE014F5F5F4F69E070E090E068
:103CD0000E94AA058093170380936205ADC489E012
:103CE000E9E4F1E0DE01119601900D928A95E1F789
:103CF00080916305AE014F5F5F4F69E070E090E037
:103D00000E94AA05809317038093630580933C0665
:103D10000E94E60F91C48FEF898380916405AE0104
:103D20004F5F5F4F6AE070E090E00E94AA058093C9
:103D3000170380936405809357067EC489E0E9E405
:103D4000F1E0DE01119601900D928A95E1F78091E4
:103D50006505AE014F5F5F4F69E070E090E00E9443
:103D6000AA0580931703809365058093580664C461
:103D70008FEF898380916605AE014F5F5F4F68E1E9
:103D800070E090E00E94AA05809317038093660577
:103D900053C48FEF898380916705AE014F5F5F4FFA
:103DA00068E170E090E00E94AA0580931703809379
:103DB000670542C48FEF898380916805AE014F5F2C
:103DC0005F4F63E070E090E00E94AA0580931703C4
:103DD0008093680531C48FEF898380916905AE01B6
:103DE0004F5F5F4F6AE070E090E00E94AA05809309
:103DF00017038093690520C48FEF898380916A053A
:103E0000AE014F5F5F4F68E070E090E00E94AA054E
:103E10008093170380936A050FC48FEF8983809185
:103E20006B05AE014F5F5F4F69E070E090E00E946C
:103E3000AA058093170380936B05FEC38FEF8983D8
:103E400080916C05AE014F5F5F4F6AE070E090E0DB
:103E50000E94AA058093170380936C05EDC38FEF32
:103E6000898380916D05AE014F5F5F4F68E170E01F
:103E700090E00E94AA058093170380936D05DCC330
:103E80008FEF898380916E05AE014F5F5F4F68E1D0
:103E900070E090E00E94AA058093170380936E055E
:103EA000CBC38FEF898380916F05AE014F5F5F4F6A
:103EB00063E070E090E00E94AA058093170380936E
:103EC0006F05BAC38FEF898380917005AE014F5F94
:103ED0005F4F6AE070E090E00E94AA0580931703AC
:103EE00080937005A9C38FEF898380917105AE011E
:103EF0004F5F5F4F68E070E090E00E94AA058093FA
:103F000017038093710598C38FEF898380917205A1
:103F1000AE014F5F5F4F69E070E090E00E94AA053C
:103F2000809317038093720587C38FEF89838091F5
:103F30007305AE014F5F5F4F6AE070E090E00E9452
:103F4000AA05809317038093730576C38FEF898347
:103F500080917405AE014F5F5F4F68E170E090E0C3
:103F60000E94AA05809317038093740565C38FEFA1
:103F7000898380917505AE014F5F5F4F68E170E006
:103F800090E00E94AA05809317038093750554C39F
:103F90008FEF898380917605AE014F5F5F4F63E0BD
:103FA00070E090E00E94AA05809317038093760545
:103FB00043C38FEF898380917705AE014F5F5F4FD9
:103FC0006AE070E090E00E94AA0580931703809356
:103FD000770532C38FEF898380917805AE014F5FFB
:103FE0005F4F68E070E090E00E94AA05809317039D
:103FF0008093780521C38FEF898380917905AE0185
:104000004F5F5F4F69E070E090E00E94AA058093E7
:1040100017038093790510C38FEF898380917A0508
:10402000AE014F5F5F4F6AE070E090E00E94AA052A
:104030008093170380937A05FFC28FEF8983809165
:104040007B05AE014F5F5F4F69E070E090E00E943A
:10405000AA058093170380937B05EEC28FEF8983B7
:1040600080917C05AE014F5F5F4F64E070E090E0AF
:104070000E94AA058093170380937C05DDC28FEF11
:10408000898380917D05AE014F5F5F4F63E070E0F3
:1040900090E00E94AA058093170380937D05CCC20F
:1040A0008FEF898380917E05AE014F5F5F4F63E0A4
:1040B00070E090E00E94AA058093170380937E052C
:1040C000882349F0A4E08A9FC0011124AA2797FD04
:1040D000A095BA2F04C081E090E0A0E0B0E080930A
:1040E0005C0690935D06A0935E06B0935F06A4C243
:1040F0008FEF898380917F05AE014F5F5F4F67E04F
:1041000070E090E00E94AA058093170390917F05CC
:10411000891719F091E09093150380937F05882308
:10412000D9F090E00E9404099093550680935406BC
:10413000AC01662757FD6095762F26E083E299E073
:104140000E94204980917F05863011F482E001C0F1
:1041500081E08093560670C2109256066DC28FEFB2
:10416000898380918005AE014F5F5F4F6EE070E004
:1041700090E00E94AA0580931703809380055CC29B
:10418000198281E08A8380918105AE014F5F5F4F84
:1041900062E070E090E00E94AA058093170380938C
:1041A00081054AC28FEF898380918205AE014F5FFE
:1041B0005F4F6DE070E090E00E94AA0580931703C6
:1041C0008093820539C285E0E2E5F1E0DE011196D7
:1041D00001900D928A95E1F780918305AE014F5FC2
:1041E0005F4F65E070E090E00E94AA05809317039E
:1041F0008093830521C287E0E7E5F1E0DE011196B7
:1042000001900D928A95E1F780918405AE014F5F90
:104210005F4F67E070E090E00E94AA05809317036B
:104220008093840509C28FEF898380918505AE0153
:104230004F5F5F4F68E170E090E00E94AA058093B5
:10424000170380938505F8C18FEF898380918605D8
:10425000AE014F5F5F4F6EE070E090E00E94AA05F4
:104260008093170380938605E7C1198281E08A83D2
:1042700080918705AE014F5F5F4F62E070E090E094
:104280000E94AA058093170380938705D5C18CE00F
:10429000EEE5F1E0DE01119601900D928A95E1F7CD
:1042A00080918805AE014F5F5F4F6CE070E090E059
:1042B0000E94AA058093170380938805BDC185E0FD
:1042C000E2E5F1E0DE01119601900D928A95E1F7A9
:1042D00080918905AE014F5F5F4F65E070E090E02F
:1042E0000E94AA058093170380938905A5C187E0E2
:1042F000E7E5F1E0DE01119601900D928A95E1F774
:1043000080918A05AE014F5F5F4F68E070E090E0FA
:104310000E94AA058093170380938A058DC18FEFB1
:10432000898380918B05AE014F5F5F4F68E170E03C
:1043300090E00E94AA058093170380938B057CC1AF
:104340008FEF898380918C05AE014F5F5F4F66E0F0
:1043500070E090E00E94AA058093170380938C057B
:10436000982F9D7F913011F490934106823019F07F
:10437000843009F061C182E0809341065DC18FEF16
:10438000898380918D05AE014F5F5F4F64E670E0D9
:1043900090E00E94AA058093170380938D054CC17D
:1043A0008FEF898380918E05AE014F5F5F4F60E094
:1043B00070E090E00E94AA050E94130B80938E0586
:1043C0003BC18FEF898380918F05AE014F5F5F4FB7
:1043D00062E370E090E00E94AA0580931703809347
:1043E0008F052AC18FEF898380919005AE014F5FC1
:1043F0005F4F6AE070E090E00E94AA058093170387
:104400008093900519C18FEF898380919105AE014A
:104410004F5F5F4F6AE070E090E00E94AA058093D2
:1044200017038093910508C18FEF898380919205CE
:10443000AE014F5F5F4F67E070E090E00E94AA0519
:104440008093170380939205F7C0198281E08A83D5
:1044500080919305AE014F5F5F4F62E070E090E0A6
:104460000E94AA058093170380939305E5C08FEF00
:10447000898380919405AE014F5F5F4F6AE070E0E1
:1044800090E00E94AA058093170380939405D4C0FE
:104490008FEF898380919505AE014F5F5F4F6AE092
:1044A00070E090E00E94AA05809317038093950521
:1044B000C3C08FEF898380919605AE014F5F5F4F38
:1044C00065E170E090E00E94AA0580931703809355
:1044D0009605B2C08FEF898380919705AE014F5F3B
:1044E0005F4F64E070E090E00E94AA05809317039C
:1044F00080939705833021F481E0809341019CC033
:104500001092410199C08FEF898380919805AE0187
:104510004F5F5F4F6CE370E090E00E94AA058093CC
:1045200017038093980588C08FEF89838091990540
:10453000AE014F5F5F4F6CE370E090E00E94AA0510
:10454000809317038093990577C08FEF8A8B8091B2
:104550009A05AE014E5E5F4F62E070E090E00E940F
:10456000AA058093170380939A05811105C08EE1F7
:10457000809399068AE004C08AE0809399068EE1D0
:104580008093980660919906CE0101960E941B3196
:1045900081E1FE013196A6E7B6E001900D928A9581
:1045A000E1F760919806CE0101960E941B3181E1EE
:1045B000FE013196A7E8B6E001900D928A95E1F7E9
:1045C0003BC08FEF898380919B05AE014F5F5F4FAA
:1045D00065E070E090E00E94AA0580931703809345
:1045E0009B052AC08FEF898380919C05AE014F5FA8
:1045F0005F4F62E070E090E00E94AA05809317038D
:1046000080939C0519C085E0E2E5F1E0DE0111969A
:1046100001900D928A95E1F780919D05AE014F5F63
:104620005F4F65E070E090E00E94AA058093170359
:1046300080939D050E944F19809118038F3F19F4B4
:104640008FE38093180380911803811104C08BE0DD
:10465000809317031AC08034C1F49FE5E92E95E0DA
:10466000F92E01E010E0F70161917F01C8010E947D
:10467000FB520F5F1F4F00341105A9F780911503FE
:10468000882319F08CE00E947119809118038034FE
:1046900019F10E9411460091600610916106209167
:1046A000620630916306601B710B820B930B613CB9
:1046B000744D8140910580F49BC040E050E0BA0108
:1046C0008BE195E00E94F3360E94D80F85E080933D
:1046D000640610921803ACC00E94F208E0919505A0
:1046E000F0E0EE0FFF1FE253FE4F6081718189E021
:1046F0000E94F4468091540690915506892B31F41E
:1047000023E043E060E080E00E9424090E944B0324
:104710002CE0FE017296DF01822F1D928A95E9F747
:1047200084E493E5A4E5B0E08A8B9B8BAC8BBD8BD6
:104730001F8A1E8A80918305888F80918405898FC6
:10474000809182058A8F809185058B8F80914E069E
:1047500090914F069D8F8C8F7197DF01822F1D9254
:104760008A95E9F783E594E5A4E4B0E089839A8328
:10477000AB83BC831E821D82809189058F838091CB
:104780008A05888780918805898780918B058A872B
:10479000ADB7BEB71C970FB6F894BEBF0FBEADBF86
:1047A000119601900D922A95E1F7CA88DB88EC8872
:1047B000FD880E891F89288D398D4A8D5B8D6C8D02
:1047C0007D8D8AE996E00E94DF300E9485100E946C
:1047D0009D101092330681E08093300110921803EF
:1047E000109264060FB6F894DEBF0FBECDBF20C096
:1047F000809118032AE0622F0E94574F8093400156
:1048000090933F0120933E0120933D0120933C0172
:1048100020933B01809117030E94574F80933A01E8
:104820009093390120E041E060E080E00E94BE0406
:104830006D960FB6F894DEBF0FBECDBFDF91CF915E
:104840001F910F91FF90EF90DF90CF900895CF923E
:10485000DF92EF92FF920F931F938CEE96E00E94EF
:10486000FF298DB79EB70C970FB6F8949EBF0FBE69
:104870008DBFADB7BEB711968CE0E2ECF6E00190CB
:104880000D928A95E1F7C090CE06D090CF06E090C9
:10489000D006F090D1060091D2061091D306209157
:1048A000D4063091D5064091D6065091D706609136
:1048B000D8067091D9068AE996E00E94F72E68E042
:1048C00085E696E00E941B316091990686E796E0A6
:1048D0000E941B316091980687E896E00E941B3188
:1048E00044E16CE18CE495E00E940F3E65E18DE3CC
:1048F00095E00E94B2396DE375E08AE295E00E948E
:104900007F3A26E430E040E050E061E18BE195E061
:104910000E94D73626E430E040E050E060E18CE0D1
:1049200095E00E94D73626E430E040E050E06FE0AA
:104930008DEF94E00E94D73626E430E040E050E06E
:104940006EE08EEE94E00E94D73682E494E00E94FE
:104950007F3286E993E00E947F328DB79EB70C9636
:104960000FB6F8949EBF0FBE8DBF20E030E040E44C
:1049700051E46DE170E080E693E01F910F91FF90AC
:10498000EF90DF90CF900C9476428AEA92E0909379
:1049900061038093600388E693E00C94E14B8F926F
:1049A0009F92AF92BF92CF92DF92EF92FF926B01F4
:1049B0007C010E9411464B015C0183E299E00E9458
:1049C0002C481816190654F483E299E00E944548D1
:1049D000682F8CEE96E00E946F2EEFCF0E9411465A
:1049E000681979098A099B096C157D058E059F0553
:1049F00020F3FF90EF90DF90CF90BF90AF909F900B
:104A00008F9008950F931F9380915E0390915F03A1
:104A10000E94EE4182E494E00E94713386E993E0C3
:104A20000E947133809138018330A1F08091560645
:104A3000882381F0813039F462E070E080E090E01A
:104A40000E94CF2407C00E949029C2970A9710F4B1
:104A50000E949B030E9490296AE070E00E94634FCD
:104A6000182F80913701811709F459C0109232062E
:104A70001092310686EB97E00E941B350E943602A9
:104A800080916406811105C08091590690E00E94D2
:104A9000F3070E9490292091990530E0821793072F
:104AA00069F480915B06882321F080917B05873033
:104AB00028F080916406882309F4F7C0809161058D
:104AC000811104C080918C058823A9F080913D0656
:104AD000813021F480915B0681110DC00E949029E4
:104AE0002091980530E08217930729F4809164069D
:104AF000882309F4DEC080915B0681110EC080918D
:104B0000640681110AC080918F0581110E94E60F11
:104B10008091920581110E94E317109337018091D3
:104B2000560381110DC00E94114660933A037093A1
:104B30003B0380933C0390933D0381E080935603B5
:104B40000E94114600913A0310913B0320913C03CF
:104B500030913D03601B710B820B930B0091380168
:104B600010E020E030E0601771078207930728F01B
:104B700080916406882309F4A0C060914A06709170
:104B80004B0680914C0690914D060E94C3276AE027
:104B900070E00E94634F182F80913601811709F150
:104BA00060914A0670914B0680914C0690914D069B
:104BB0000E94C927892BA9F480916406811111C034
:104BC00080915606882319F081E00E94000A8091A6
:104BD0005A06811102C00E949D100E941318109362
:104BE00036018BE195E00E9443378BE195E00E940E
:104BF0000D37892B71F48BE195E00E94F9366D3DFC
:104C000075408105910528F080916406882309F498
:104C100065C08CE095E00E9443378EEE94E00E94E0
:104C200043378EEE94E00E948337882321F08091F1
:104C30005B06811164C08DEF94E00E9443378DEFD5
:104C400094E00E948337882329F0809164068823AA
:104C500009F473C080916406833091F038F4813098
:104C600061F0823091F40E94AC150FC0843059F08D
:104C7000853059F40E94851108C00E94AB0B05C015
:104C80000E941A1302C00E940C1D6091570670E02A
:104C90008091580690E00E94EE0523E043E063E037
:104CA00083E01F910F910C94240982E080936406A5
:104CB00005CF81E0809364061ECF20E040E060E0F5
:104CC00081E00E94BE040E94114660933A037093F3
:104CD0003B0380933C0390933D034FCF83E080934D
:104CE00064060E941146609360067093610680938B
:104CF00062069093630681E0809333068ACF209109
:104D00005C0630915D0640915E0650915F06A8E911
:104D1000BAE30E94D44FAB01BC0124E133E182E449
:104D200094E00E942D3310925B0681E080935A0636
:104D3000809333060E94E60F7ECF8091410191E07F
:104D40008927809341010E94D80F84CF6F927F9270
:104D50008F929F92AF92BF92CF92DF92EF92FF928B
:104D60000F931F93CF93DF93EA012CE3C22ED12C34
:104D7000E12CF12CA70196010E94774F6883CA01AC
:104D8000B901A70196010E94774F6983CA01B90151
:104D900028E130E040E050E00E94774F49015A019D
:104DA0006A83CA01B9016C5F7F4F8F4F9F4F27E025
:104DB00030E040E050E00E94774F6F5F6B8300E08F
:104DC00010E0980140E054E6652E712C60E9C62E93
:104DD000DD24D394E42FF0E0EE54F84F7F0183E01C
:104DE000E822FF24E114F10489F4CF01B3010E9409
:104DF000634F892B29F08EE691E0A0E0B0E00AC075
:104E0000CF01B6010E94634F892BA9F38DE691E093
:104E1000A0E0B0E0080F191F2A1F3B1FD901C801ED
:104E2000AA27BB2788169906AA06BB0610F04F5F73
:104E3000D1CF4E83E114F10499F4CF0164E670E020
:104E40000E94634F892B29F08EE691E0A0E0B0E04C
:104E50000BC0CF0160E971E00E94634F892BA1F381
:104E60008DE691E0A0E0B0E0081B190B2A0B3B0B8C
:104E7000801A910AA20AB30ACF0164E670E00E9488
:104E8000634F9C01CF0160E971E00E94634FEEE344
:104E9000F2E0A0E0A13059F4E114F10451F421153D
:104EA000310511F04DE106C00097E1F302C04081E9
:104EB00001C04CE150E060E070E084169506A60663
:104EC000B70640F0841A950AA60AB70AAF5F319672
:104ED000AC3001F7AF5FAD8383948C82DF91CF91CB
:104EE0001F910F91FF90EF90DF90CF90BF90AF9008
:104EF0009F908F907F906F900895CF92DF92EF9266
:104F0000FF926B017C018091AB079091AC07A0915F
:104F1000AD07B091AE07C816D906EA06FB0671F0D8
:104F20004FEA57E0C701B6010E94A626C092AB0720
:104F3000D092AC07E092AD07F092AE07FF90EF90F1
:104F4000DF90CF9008950E947D278091B10790E077
:104F500008950E947D272091B10730E081E02C3038
:104F600031050CF480E008950E947D272091B1075F
:104F7000222331F0822F90E02D3020F00C970895FD
:104F80008CE090E008950E947D278091B00790E02A
:104F900008950E947D278091AF0790E008950E94B8
:104FA0007D278091B30790E008950E947D2780912E
:104FB000B20790E008950E947D278091B40790E0A9
:104FC00008950E947D278091B50790E08E54984FF8
:104FD00008956F927F928F929F92AF92BF92CF92DD
:104FE000DF92EF92FF920F931F93CF93DF93FC0119
:104FF000C680AC2DB0E020E833E341EE51E00E94E2
:10500000D44F4B015C0122EB37E06D01C4E6D0E0E8
:1050100000E911E0C901825B97408C159D05DCF425
:10502000C90183709927892B99F4C901BE010E9497
:10503000634F892B31F4C901B8010E94634F892B5A
:1050400039F480E8880E81E5981E81E0A81EB11C25
:105050002F5F3F4FDFCF6580712C8EE4C81A88EF39
:10506000D80AC60164E670E00E94634F8C01C60155
:1050700060E971E00E94634F7C01C1E0D0E083E011
:10508000C822DD24C615D7052CF5C230D10589F418
:10509000C114D10471F40115110519F4E114F104DE
:1050A00041F480E8880E8BE3981E86E2A81EB11CAE
:1050B0000FC0DE01A35CBD4FAC91B0E020E831E54C
:1050C00041E050E00E94D44F860E971EA81EB91EE4
:1050D0002196D8CF4181228130E0A0E1BEE00E943C
:1050E000BE4F6B017C01242F30E0ACE3B0E00E94A6
:1050F000BE4FC60ED71EE81EF91E8081C80ED11CF9
:10510000E11CF11CA481B0E0119720E831E541E0F9
:1051100050E00E94DF4FC60ED71EE81EF91EC80CD5
:10512000D91CEA1CFB1CC701B601DF91CF911F916E
:105130000F91FF90EF90DF90CF90BF90AF909F9036
:105140008F907F906F9008950F931F936093A507A2
:105150007093A6078093A7079093A8070091430137
:10516000109144012091450130914601060F171F0F
:10517000281F391F00939D0710939E0720939F07B8
:105180003093A00782E090E090939C0780939B0768
:105190000E9411466093A1077093A2078093A30712
:1051A0009093A4071F910F9108958F929F92AF92B1
:1051B000BF92CF92DF92EF92FF920F931F930E94C4
:1051C0001146C090A107D090A207E090A307F090ED
:1051D000A4074091A9075091AA076C197D098E096F
:1051E0009F094A0128E1821A2CEF920AAA2497FC0F
:1051F000A094BA2C0091A5071091A6072091A707AB
:105200003091A807681579058A059B0538F10F5F6D
:105210001F4F2F4F3F4F0093A5071093A6072093D2
:10522000A7073093A807D701C60188519C4FAF4FFD
:10523000BF4F662757FD6095762F840F951FA61FD9
:10524000B71F8093A1079093A207A093A307B093E1
:10525000A4071092AA071092A907B1CF80919D07C9
:1052600090919E07A0919F07B091A007081719077A
:105270002A073B07C8F1E0919907F0919A07309708
:1052800099F10995611571058105910519F00E9443
:10529000A4282AC08091430190914401A091450126
:1052A000B09146014091A5075091A6076091A707CC
:1052B0007091A807840F951FA61FB71F80939D07A5
:1052C00090939E07A0939F07B093A00781E090E082
:1052D00020919B0730919C07232B11F480E090E0F4
:1052E00090939C0780939B076091A5077091A607F8
:1052F0008091A7079091A8071F910F91FF90EF90C1
:10530000DF90CF90BF90AF909F908F9008950E94B4
:10531000D5280E94A92791E0811190E0892F089556
:105320000E94D5280E947D278091AF0790E00895C4
:10533000EF92FF920F9394E6E916F1042CF092EBB2
:10534000E91A97E0F90A03C09EE1E90EF11CE09228
:10535000B5070093B4072093B3078093B107609318
:10536000B0074093AF078FEA97E00E94E9270F91BB
:10537000FF90EF900C94A4289093AA078093A9071C
:1053800008950E94D52880919B0790919C070895CD
:1053900090939A07809399078091A5079091A6070B
:1053A000A091A707B091A80780939D0790939E07AF
:1053B000A0939F07B093A0070C94D5280F931F9339
:1053C000609343017093440180934501909346019B
:1053D0000091A5071091A6072091A7073091A80773
:1053E000060F171F281F391F00939D0710939E0754
:1053F00020939F073093A0071F910F910895FC0100
:1054000010821182138212821482158216821782F0
:1054100010861286118613861486158616861786C0
:10542000118A108A128A138A148A158A168A108E93
:10543000178A118E128E138E148E158E12A213A23D
:1054400014A215A216A217A210AA11AA12AA13AA90
:1054500014AA15AA16AE17AEDC01AC5BBF4F1D92A5
:105460001D921D921C92139718961C9211961C92D5
:10547000119716961D921D921D921C9219971E96B9
:105480001C9211961C92119716961D921D921D92B8
:105490001C9219971E961C9211961C9211971696A3
:1054A0001D921D921D921C9219971E961C92119688
:1054B0001C92119716961D921D921D921C9219977F
:1054C0001E961C9211961C92509682E08C93119617
:1054D0001C9211961C9211961C92119611961C9278
:1054E0001E92129611961C921E9212961D921D9259
:1054F0001D921C92139714961D921D921D921C9240
:10550000139714961D921D921D921C921397149638
:105510001D921D921D921C921397EA57FF4F108205
:1055200008952FEB260F862F992787FD909526301B
:1055300010F4C79708956156663018F4875591099D
:105540000895C0970895FF920F931F93CF93DF9311
:10555000EC01FF24F39488818D3211F0F12C01C00D
:105560002196CE010E946A529B01AC01A4E6B0E0F4
:105570000E94D44FFE014991242F332727FD3095F7
:10558000205331092A303105A8F34E3241F52181EB
:10559000332727FD3095205331092A303105F8F49F
:1055A0004AE0429F8001439F100D1124222717FDDE
:1055B0002095322F600F711F821F931F02811127C8
:1055C00007FD1095005311090A30110540F42227F8
:1055D00017FD2095322F600F711F821F931FFF2030
:1055E00039F090958095709561957F4F8F4F9F4FC3
:1055F000DF91CF911F910F91FF9008952F923F92CD
:105600004F925F926F927F928F929F92AF92BF92D2
:10561000CF92DF92EF92FF920F931F93CF93DF937E
:10562000D82FC92F8B010E946A5224E630E040E057
:1056300050E00E94774F49015A019B01AC0160E89C
:1056400076E988E990E00E94474F6B017C01F80100
:1056500091828082ED2FFC2F2191822F992787FD47
:105660009095C0970A97C0F32E3239F51F0180E854
:10567000882E86E9982E88E9A82EB12C9AE0492E2A
:10568000512C612C712CF101C1911F01DD27C7FD47
:10569000D095E097CA30D10580F4C501B401A301CB
:1056A00092010E94774F49015A01DE010E94DF4FAB
:1056B000C60ED71EE81EF91EE6CFA5E0B0E0A70192
:1056C00096010E94D44F6F5F7F4F8F4F9F4F23E013
:1056D00030E040E050E00E94774FF80122833383AE
:1056E000448355831682DF91CF911F910F91FF90D4
:1056F000EF90DF90CF90BF90AF909F908F907F9072
:105700006F905F904F903F902F900895CF93DF93CD
:10571000EC0187E0FE017096DE01129601900D9279
:105720008A95E1F787E0FE017796DE0119960190F0
:105730000D928A95E1F70E9411466E8F7F8F88A3A4
:1057400099A381E089838883DF91CF910895CF93D6
:10575000DF93EC014E815F81688579854A835B83A5
:105760006C837D830E9411466A877B878C879D8727
:1057700081E089838883DF91CF910895CF93DF9370
:10578000EC014E815F81688579854A835B836C83F8
:105790007D830E9411466A877B878C879D8781E085
:1057A00089838883DF91CF910895CF93DF93EC01B4
:1057B000CB010E94A32A6E837F8388879987DF911C
:1057C000CF910895CF93DF93EC01CB010E946A52F1
:1057D0006E837F8388879987DF91CF910895FC013D
:1057E0001182628173818481958124E630E040E0FA
:1057F00050E00E94774FCB018053984F0895CF928D
:10580000DF92EF92FF92FC011182628173818481A9
:10581000958134E6C32ED12CE12CF12CA701960101
:105820000E94774FCA01B901A70196010E94774FE4
:10583000862FFF90EF90DF90CF900895FC011182AA
:10584000628173818481958120E137E240E050E0FC
:105850000E94774F822F0895FC011182628173812B
:105860008481958120E432E44FE050E00E94774F3C
:10587000822F0895FC011182628173818481958158
:1058800020E137E240E050E00E94774FCA01B901C1
:1058900024E630E040E050E00E94774F862F0895E4
:1058A000CF92DF92EF92FF92FC01118262817381AD
:1058B0008481958144E6C42ED12CE12CF12CA701E2
:1058C00096010E94774FCA01B901A70196010E9473
:1058D000774F862FFF90EF90DF90CF900895FC01D7
:1058E0001182628173818481958124E630E040E0F9
:1058F00050E00E94774F862F0895CF93DF93EC01FD
:105900004A855B856C857D854E835F836887798753
:105910000E9411466A837B838C839D8381E0898307
:105920008883DF91CF910895CF93DF93EC01CB0172
:105930000E94A32A6A877B878C879D87DF91CF91FE
:105940000895CF93DF93EC014A855B856C857D8557
:105950004E835F83688779870E9411466A837B83C1
:105960008C839D8381E089838883DF91CF91089523
:10597000CF93DF93EC01CB010E946A526A877B8749
:105980008C879D87DF91CF910895CF93DF93EC01B2
:10599000BC0140960E94A3520E94114668A379A3BD
:1059A0008AA39BA381E08DA38CA3DF91CF9108955F
:1059B00040E150E00C94AA52AF92BF92CF92DF9296
:1059C000FF920F931F93CF93DF93EC01FC01EB57F2
:1059D000FF4FF080FF2009F49CC0319660810E9447
:1059E000912A182FFE01E957FF4F6081CE010E94D6
:1059F000912A40E1149F800D1124FE01EC57FF4FC6
:105A00009081891376C0B5964081518162817381FE
:105A10004F5F5F4F6F4F7F4F40835183628373832C
:105A20008E0108561F4FD8018C91882369F0389752
:105A300040815181628173814F5F5F4F6F4F7F4F14
:105A40004083518362837383FE01EB56FF4F808155
:105A50008823C9F0813089F5CE0182960E94A72B58
:105A6000CE01C0960E94BE2BF8018081882329F1C7
:105A7000CE010E94862BCE01CE960E947D2CCE01B7
:105A8000845B9F4F18C0CE01C0960E94BE2BD801E8
:105A90008C91882341F0CE010E94862BCE01865A3C
:105AA0009F4F0E947D2CCE0188599F4F0E94A12CB0
:105AB000CE018A589F4F0E947D2C8E0105561F4FA4
:105AC000F801C081D181209709F4FEC0D801ED9181
:105AD000FC9166A177A18EA19FA10E949A52892B69
